{
	"contracts/SimpleStorage.sol": {
		"SimpleStorage": {
			"abi": [
				{
					"inputs": [],
					"name": "add",
					"outputs": [
						{
							"internalType": "uint256",
							"name": "sum",
							"type": "uint256"
						},
						{
							"internalType": "uint256",
							"name": "prd",
							"type": "uint256"
						}
					],
					"stateMutability": "pure",
					"type": "function"
				},
				{
					"inputs": [
						{
							"internalType": "uint256",
							"name": "_favNumber",
							"type": "uint256"
						},
						{
							"internalType": "string",
							"name": "_name",
							"type": "string"
						}
					],
					"name": "addperson",
					"outputs": [],
					"stateMutability": "nonpayable",
					"type": "function"
				},
				{
					"inputs": [],
					"name": "favNumber",
					"outputs": [
						{
							"internalType": "uint256",
							"name": "",
							"type": "uint256"
						}
					],
					"stateMutability": "view",
					"type": "function"
				},
				{
					"inputs": [
						{
							"internalType": "string",
							"name": "",
							"type": "string"
						}
					],
					"name": "nameToFavNumber",
					"outputs": [
						{
							"internalType": "uint256",
							"name": "",
							"type": "uint256"
						}
					],
					"stateMutability": "view",
					"type": "function"
				},
				{
					"inputs": [
						{
							"internalType": "uint256",
							"name": "",
							"type": "uint256"
						}
					],
					"name": "people",
					"outputs": [
						{
							"internalType": "uint256",
							"name": "favNumber",
							"type": "uint256"
						},
						{
							"internalType": "string",
							"name": "name",
							"type": "string"
						}
					],
					"stateMutability": "view",
					"type": "function"
				},
				{
					"inputs": [],
					"name": "person",
					"outputs": [
						{
							"internalType": "uint256",
							"name": "favNumber",
							"type": "uint256"
						},
						{
							"internalType": "string",
							"name": "name",
							"type": "string"
						}
					],
					"stateMutability": "view",
					"type": "function"
				},
				{
					"inputs": [],
					"name": "retrieve",
					"outputs": [
						{
							"internalType": "uint256",
							"name": "",
							"type": "uint256"
						}
					],
					"stateMutability": "view",
					"type": "function"
				},
				{
					"inputs": [
						{
							"internalType": "uint256",
							"name": "_favNumber",
							"type": "uint256"
						}
					],
					"name": "store",
					"outputs": [],
					"stateMutability": "nonpayable",
					"type": "function"
				}
			],
			"devdoc": {
				"kind": "dev",
				"methods": {},
				"version": 1
			},
			"evm": {
				"assembly": "    /* \"contracts/SimpleStorage.sol\":57:1587  contract SimpleStorage{... */\n  mstore(0x40, 0x80)\n    /* \"contracts/SimpleStorage.sol\":590:625  People({favNumber:2, name:\"radha\"}) */\n  mload(0x40)\n  dup1\n  0x40\n  add\n  0x40\n  mstore\n  dup1\n    /* \"contracts/SimpleStorage.sol\":608:609  2 */\n  0x02\n    /* \"contracts/SimpleStorage.sol\":590:625  People({favNumber:2, name:\"radha\"}) */\n  dup2\n  mstore\n  0x20\n  add\n  mload(0x40)\n  dup1\n  0x40\n  add\n  0x40\n  mstore\n  dup1\n  0x05\n  dup2\n  mstore\n  0x20\n  add\n  0x7261646861000000000000000000000000000000000000000000000000000000\n  dup2\n  mstore\n  pop\n  dup2\n  mstore\n  pop\n    /* \"contracts/SimpleStorage.sol\":569:625  People public person=People({favNumber:2, name:\"radha\"}) */\n  0x02\n  0x00\n  dup3\n  add\n  mload\n  dup2\n  0x00\n  add\n  sstore\n  0x20\n  dup3\n  add\n  mload\n  dup2\n  0x01\n  add\n  swap1\n  dup1\n  mload\n  swap1\n  0x20\n  add\n  swap1\n  tag_1\n  swap3\n  swap2\n  swap1\n  tag_2\n  jump\t// in\ntag_1:\n  pop\n  pop\n  pop\n    /* \"contracts/SimpleStorage.sol\":57:1587  contract SimpleStorage{... */\n  callvalue\n  dup1\n  iszero\n  tag_3\n  jumpi\n  0x00\n  dup1\n  revert\ntag_3:\n  pop\n  jump(tag_4)\ntag_2:\n  dup3\n  dup1\n  sload\n  tag_5\n  swap1\n  tag_6\n  jump\t// in\ntag_5:\n  swap1\n  0x00\n  mstore\n  keccak256(0x00, 0x20)\n  swap1\n  0x1f\n  add\n  0x20\n  swap1\n  div\n  dup2\n  add\n  swap3\n  dup3\n  tag_8\n  jumpi\n  0x00\n  dup6\n  sstore\n  jump(tag_7)\ntag_8:\n  dup3\n  0x1f\n  lt\n  tag_9\n  jumpi\n  dup1\n  mload\n  not(0xff)\n  and\n  dup4\n  dup1\n  add\n  or\n  dup6\n  sstore\n  jump(tag_7)\ntag_9:\n  dup3\n  dup1\n  add\n  0x01\n  add\n  dup6\n  sstore\n  dup3\n  iszero\n  tag_7\n  jumpi\n  swap2\n  dup3\n  add\ntag_10:\n  dup3\n  dup2\n  gt\n  iszero\n  tag_11\n  jumpi\n  dup3\n  mload\n  dup3\n  sstore\n  swap2\n  0x20\n  add\n  swap2\n  swap1\n  0x01\n  add\n  swap1\n  jump(tag_10)\ntag_11:\ntag_7:\n  pop\n  swap1\n  pop\n  tag_12\n  swap2\n  swap1\n  tag_13\n  jump\t// in\ntag_12:\n  pop\n  swap1\n  jump\t// out\ntag_13:\ntag_14:\n  dup1\n  dup3\n  gt\n  iszero\n  tag_15\n  jumpi\n  0x00\n  dup2\n  0x00\n  swap1\n  sstore\n  pop\n  0x01\n  add\n  jump(tag_14)\ntag_15:\n  pop\n  swap1\n  jump\t// out\n    /* \"#utility.yul\":7:187   */\ntag_16:\n    /* \"#utility.yul\":55:132   */\n  0x4e487b7100000000000000000000000000000000000000000000000000000000\n    /* \"#utility.yul\":52:53   */\n  0x00\n    /* \"#utility.yul\":45:133   */\n  mstore\n    /* \"#utility.yul\":152:156   */\n  0x22\n    /* \"#utility.yul\":149:150   */\n  0x04\n    /* \"#utility.yul\":142:157   */\n  mstore\n    /* \"#utility.yul\":176:180   */\n  0x24\n    /* \"#utility.yul\":173:174   */\n  0x00\n    /* \"#utility.yul\":166:181   */\n  revert\n    /* \"#utility.yul\":193:513   */\ntag_6:\n    /* \"#utility.yul\":237:243   */\n  0x00\n    /* \"#utility.yul\":274:275   */\n  0x02\n    /* \"#utility.yul\":268:272   */\n  dup3\n    /* \"#utility.yul\":264:276   */\n  div\n    /* \"#utility.yul\":254:276   */\n  swap1\n  pop\n    /* \"#utility.yul\":321:322   */\n  0x01\n    /* \"#utility.yul\":315:319   */\n  dup3\n    /* \"#utility.yul\":311:323   */\n  and\n    /* \"#utility.yul\":342:360   */\n  dup1\n    /* \"#utility.yul\":332:413   */\n  tag_20\n  jumpi\n    /* \"#utility.yul\":398:402   */\n  0x7f\n    /* \"#utility.yul\":390:396   */\n  dup3\n    /* \"#utility.yul\":386:403   */\n  and\n    /* \"#utility.yul\":376:403   */\n  swap2\n  pop\n    /* \"#utility.yul\":332:413   */\ntag_20:\n    /* \"#utility.yul\":460:462   */\n  0x20\n    /* \"#utility.yul\":452:458   */\n  dup3\n    /* \"#utility.yul\":449:463   */\n  lt\n    /* \"#utility.yul\":429:447   */\n  dup2\n    /* \"#utility.yul\":426:464   */\n  eq\n    /* \"#utility.yul\":423:507   */\n  iszero\n  tag_21\n  jumpi\n    /* \"#utility.yul\":479:497   */\n  tag_22\n  tag_16\n  jump\t// in\ntag_22:\n    /* \"#utility.yul\":423:507   */\ntag_21:\n    /* \"#utility.yul\":244:513   */\n  pop\n    /* \"#utility.yul\":193:513   */\n  swap2\n  swap1\n  pop\n  jump\t// out\n    /* \"contracts/SimpleStorage.sol\":57:1587  contract SimpleStorage{... */\ntag_4:\n  dataSize(sub_0)\n  dup1\n  dataOffset(sub_0)\n  0x00\n  codecopy\n  0x00\n  return\nstop\n\nsub_0: assembly {\n        /* \"contracts/SimpleStorage.sol\":57:1587  contract SimpleStorage{... */\n      mstore(0x40, 0x80)\n      callvalue\n      dup1\n      iszero\n      tag_1\n      jumpi\n      0x00\n      dup1\n      revert\n    tag_1:\n      pop\n      jumpi(tag_2, lt(calldatasize, 0x04))\n      shr(0xe0, calldataload(0x00))\n      dup1\n      0x77ec2b55\n      gt\n      tag_11\n      jumpi\n      dup1\n      0x77ec2b55\n      eq\n      tag_7\n      jumpi\n      dup1\n      0x9e7a13ad\n      eq\n      tag_8\n      jumpi\n      dup1\n      0xa7279116\n      eq\n      tag_9\n      jumpi\n      dup1\n      0xc7a0d9f6\n      eq\n      tag_10\n      jumpi\n      jump(tag_2)\n    tag_11:\n      dup1\n      0x2e64cec1\n      eq\n      tag_3\n      jumpi\n      dup1\n      0x43ec8f47\n      eq\n      tag_4\n      jumpi\n      dup1\n      0x4f2be91f\n      eq\n      tag_5\n      jumpi\n      dup1\n      0x6057361d\n      eq\n      tag_6\n      jumpi\n    tag_2:\n      0x00\n      dup1\n      revert\n        /* \"contracts/SimpleStorage.sol\":1044:1136  function retrieve () public view returns (uint256){... */\n    tag_3:\n      tag_12\n      tag_13\n      jump\t// in\n    tag_12:\n      mload(0x40)\n      tag_14\n      swap2\n      swap1\n      tag_15\n      jump\t// in\n    tag_14:\n      mload(0x40)\n      dup1\n      swap2\n      sub\n      swap1\n      return\n        /* \"contracts/SimpleStorage.sol\":458:505  mapping(string=>uint256) public nameToFavNumber */\n    tag_4:\n      tag_16\n      0x04\n      dup1\n      calldatasize\n      sub\n      dup2\n      add\n      swap1\n      tag_17\n      swap2\n      swap1\n      tag_18\n      jump\t// in\n    tag_17:\n      tag_19\n      jump\t// in\n    tag_16:\n      mload(0x40)\n      tag_20\n      swap2\n      swap1\n      tag_15\n      jump\t// in\n    tag_20:\n      mload(0x40)\n      dup1\n      swap2\n      sub\n      swap1\n      return\n        /* \"contracts/SimpleStorage.sol\":1141:1264  function add () public pure returns(uint sum,uint prd){... */\n    tag_5:\n      tag_21\n      tag_22\n      jump\t// in\n    tag_21:\n      mload(0x40)\n      tag_23\n      swap3\n      swap2\n      swap1\n      tag_24\n      jump\t// in\n    tag_23:\n      mload(0x40)\n      dup1\n      swap2\n      sub\n      swap1\n      return\n        /* \"contracts/SimpleStorage.sol\":758:1039  function store(uint _favNumber) public virtual{... */\n    tag_6:\n      tag_25\n      0x04\n      dup1\n      calldatasize\n      sub\n      dup2\n      add\n      swap1\n      tag_26\n      swap2\n      swap1\n      tag_27\n      jump\t// in\n    tag_26:\n      tag_28\n      jump\t// in\n    tag_25:\n      stop\n        /* \"contracts/SimpleStorage.sol\":569:625  People public person=People({favNumber:2, name:\"radha\"}) */\n    tag_7:\n      tag_29\n      tag_30\n      jump\t// in\n    tag_29:\n      mload(0x40)\n      tag_31\n      swap3\n      swap2\n      swap1\n      tag_32\n      jump\t// in\n    tag_31:\n      mload(0x40)\n      dup1\n      swap2\n      sub\n      swap1\n      return\n        /* \"contracts/SimpleStorage.sol\":656:679  People [] public people */\n    tag_8:\n      tag_33\n      0x04\n      dup1\n      calldatasize\n      sub\n      dup2\n      add\n      swap1\n      tag_34\n      swap2\n      swap1\n      tag_27\n      jump\t// in\n    tag_34:\n      tag_35\n      jump\t// in\n    tag_33:\n      mload(0x40)\n      tag_36\n      swap3\n      swap2\n      swap1\n      tag_32\n      jump\t// in\n    tag_36:\n      mload(0x40)\n      dup1\n      swap2\n      sub\n      swap1\n      return\n        /* \"contracts/SimpleStorage.sol\":1269:1578  function addperson(uint _favNumber, string memory _name) public{... */\n    tag_9:\n      tag_37\n      0x04\n      dup1\n      calldatasize\n      sub\n      dup2\n      add\n      swap1\n      tag_38\n      swap2\n      swap1\n      tag_39\n      jump\t// in\n    tag_38:\n      tag_40\n      jump\t// in\n    tag_37:\n      stop\n        /* \"contracts/SimpleStorage.sol\":304:329  uint256 public  favNumber */\n    tag_10:\n      tag_41\n      tag_42\n      jump\t// in\n    tag_41:\n      mload(0x40)\n      tag_43\n      swap2\n      swap1\n      tag_15\n      jump\t// in\n    tag_43:\n      mload(0x40)\n      dup1\n      swap2\n      sub\n      swap1\n      return\n        /* \"contracts/SimpleStorage.sol\":1044:1136  function retrieve () public view returns (uint256){... */\n    tag_13:\n        /* \"contracts/SimpleStorage.sol\":1086:1093  uint256 */\n      0x00\n        /* \"contracts/SimpleStorage.sol\":1116:1125  favNumber */\n      dup1\n      sload\n        /* \"contracts/SimpleStorage.sol\":1109:1125  return favNumber */\n      swap1\n      pop\n        /* \"contracts/SimpleStorage.sol\":1044:1136  function retrieve () public view returns (uint256){... */\n      swap1\n      jump\t// out\n        /* \"contracts/SimpleStorage.sol\":458:505  mapping(string=>uint256) public nameToFavNumber */\n    tag_19:\n      0x01\n      dup2\n      dup1\n      mload\n      0x20\n      dup2\n      add\n      dup3\n      add\n      dup1\n      mload\n      dup5\n      dup3\n      mstore\n      0x20\n      dup4\n      add\n      0x20\n      dup6\n      add\n      keccak256\n      dup2\n      dup4\n      mstore\n      dup1\n      swap6\n      pop\n      pop\n      pop\n      pop\n      pop\n      pop\n      0x00\n      swap2\n      pop\n      swap1\n      pop\n      sload\n      dup2\n      jump\t// out\n        /* \"contracts/SimpleStorage.sol\":1141:1264  function add () public pure returns(uint sum,uint prd){... */\n    tag_22:\n        /* \"contracts/SimpleStorage.sol\":1177:1185  uint sum */\n      0x00\n        /* \"contracts/SimpleStorage.sol\":1186:1194  uint prd */\n      dup1\n        /* \"contracts/SimpleStorage.sol\":1203:1209  uint a */\n      0x00\n        /* \"contracts/SimpleStorage.sol\":1210:1211  2 */\n      0x02\n        /* \"contracts/SimpleStorage.sol\":1203:1211  uint a=2 */\n      swap1\n      pop\n        /* \"contracts/SimpleStorage.sol\":1219:1225  uint b */\n      0x00\n        /* \"contracts/SimpleStorage.sol\":1226:1227  5 */\n      0x05\n        /* \"contracts/SimpleStorage.sol\":1219:1227  uint b=5 */\n      swap1\n      pop\n        /* \"contracts/SimpleStorage.sol\":1241:1242  b */\n      dup1\n        /* \"contracts/SimpleStorage.sol\":1239:1240  a */\n      dup3\n        /* \"contracts/SimpleStorage.sol\":1239:1242  a+b */\n      tag_46\n      swap2\n      swap1\n      tag_47\n      jump\t// in\n    tag_46:\n        /* \"contracts/SimpleStorage.sol\":1235:1242  sum=a+b */\n      swap4\n      pop\n        /* \"contracts/SimpleStorage.sol\":1256:1257  b */\n      dup1\n        /* \"contracts/SimpleStorage.sol\":1254:1255  a */\n      dup3\n        /* \"contracts/SimpleStorage.sol\":1254:1257  a*b */\n      tag_48\n      swap2\n      swap1\n      tag_49\n      jump\t// in\n    tag_48:\n        /* \"contracts/SimpleStorage.sol\":1250:1257  prd=a*b */\n      swap3\n      pop\n        /* \"contracts/SimpleStorage.sol\":1195:1264  {... */\n      pop\n      pop\n        /* \"contracts/SimpleStorage.sol\":1141:1264  function add () public pure returns(uint sum,uint prd){... */\n      swap1\n      swap2\n      jump\t// out\n        /* \"contracts/SimpleStorage.sol\":758:1039  function store(uint _favNumber) public virtual{... */\n    tag_28:\n        /* \"contracts/SimpleStorage.sol\":866:876  _favNumber */\n      dup1\n        /* \"contracts/SimpleStorage.sol\":856:865  favNumber */\n      0x00\n        /* \"contracts/SimpleStorage.sol\":856:876  favNumber=_favNumber */\n      dup2\n      swap1\n      sstore\n      pop\n        /* \"contracts/SimpleStorage.sol\":758:1039  function store(uint _favNumber) public virtual{... */\n      pop\n      jump\t// out\n        /* \"contracts/SimpleStorage.sol\":569:625  People public person=People({favNumber:2, name:\"radha\"}) */\n    tag_30:\n      0x02\n      dup1\n      0x00\n      add\n      sload\n      swap1\n      dup1\n      0x01\n      add\n      dup1\n      sload\n      tag_51\n      swap1\n      tag_52\n      jump\t// in\n    tag_51:\n      dup1\n      0x1f\n      add\n      0x20\n      dup1\n      swap2\n      div\n      mul\n      0x20\n      add\n      mload(0x40)\n      swap1\n      dup2\n      add\n      0x40\n      mstore\n      dup1\n      swap3\n      swap2\n      swap1\n      dup2\n      dup2\n      mstore\n      0x20\n      add\n      dup3\n      dup1\n      sload\n      tag_53\n      swap1\n      tag_52\n      jump\t// in\n    tag_53:\n      dup1\n      iszero\n      tag_54\n      jumpi\n      dup1\n      0x1f\n      lt\n      tag_55\n      jumpi\n      0x0100\n      dup1\n      dup4\n      sload\n      div\n      mul\n      dup4\n      mstore\n      swap2\n      0x20\n      add\n      swap2\n      jump(tag_54)\n    tag_55:\n      dup3\n      add\n      swap2\n      swap1\n      0x00\n      mstore\n      keccak256(0x00, 0x20)\n      swap1\n    tag_56:\n      dup2\n      sload\n      dup2\n      mstore\n      swap1\n      0x01\n      add\n      swap1\n      0x20\n      add\n      dup1\n      dup4\n      gt\n      tag_56\n      jumpi\n      dup3\n      swap1\n      sub\n      0x1f\n      and\n      dup3\n      add\n      swap2\n    tag_54:\n      pop\n      pop\n      pop\n      pop\n      pop\n      swap1\n      pop\n      dup3\n      jump\t// out\n        /* \"contracts/SimpleStorage.sol\":656:679  People [] public people */\n    tag_35:\n      0x04\n      dup2\n      dup2\n      sload\n      dup2\n      lt\n      tag_57\n      jumpi\n      0x00\n      dup1\n      revert\n    tag_57:\n      swap1\n      0x00\n      mstore\n      keccak256(0x00, 0x20)\n      swap1\n      0x02\n      mul\n      add\n      0x00\n      swap2\n      pop\n      swap1\n      pop\n      dup1\n      0x00\n      add\n      sload\n      swap1\n      dup1\n      0x01\n      add\n      dup1\n      sload\n      tag_59\n      swap1\n      tag_52\n      jump\t// in\n    tag_59:\n      dup1\n      0x1f\n      add\n      0x20\n      dup1\n      swap2\n      div\n      mul\n      0x20\n      add\n      mload(0x40)\n      swap1\n      dup2\n      add\n      0x40\n      mstore\n      dup1\n      swap3\n      swap2\n      swap1\n      dup2\n      dup2\n      mstore\n      0x20\n      add\n      dup3\n      dup1\n      sload\n      tag_60\n      swap1\n      tag_52\n      jump\t// in\n    tag_60:\n      dup1\n      iszero\n      tag_61\n      jumpi\n      dup1\n      0x1f\n      lt\n      tag_62\n      jumpi\n      0x0100\n      dup1\n      dup4\n      sload\n      div\n      mul\n      dup4\n      mstore\n      swap2\n      0x20\n      add\n      swap2\n      jump(tag_61)\n    tag_62:\n      dup3\n      add\n      swap2\n      swap1\n      0x00\n      mstore\n      keccak256(0x00, 0x20)\n      swap1\n    tag_63:\n      dup2\n      sload\n      dup2\n      mstore\n      swap1\n      0x01\n      add\n      swap1\n      0x20\n      add\n      dup1\n      dup4\n      gt\n      tag_63\n      jumpi\n      dup3\n      swap1\n      sub\n      0x1f\n      and\n      dup3\n      add\n      swap2\n    tag_61:\n      pop\n      pop\n      pop\n      pop\n      pop\n      swap1\n      pop\n      dup3\n      jump\t// out\n        /* \"contracts/SimpleStorage.sol\":1269:1578  function addperson(uint _favNumber, string memory _name) public{... */\n    tag_40:\n        /* \"contracts/SimpleStorage.sol\":1340:1363  People memory newPerson */\n      0x00\n        /* \"contracts/SimpleStorage.sol\":1364:1405  People({favNumber:_favNumber,name:_name}) */\n      mload(0x40)\n      dup1\n      0x40\n      add\n      0x40\n      mstore\n      dup1\n        /* \"contracts/SimpleStorage.sol\":1382:1392  _favNumber */\n      dup5\n        /* \"contracts/SimpleStorage.sol\":1364:1405  People({favNumber:_favNumber,name:_name}) */\n      dup2\n      mstore\n      0x20\n      add\n        /* \"contracts/SimpleStorage.sol\":1398:1403  _name */\n      dup4\n        /* \"contracts/SimpleStorage.sol\":1364:1405  People({favNumber:_favNumber,name:_name}) */\n      dup2\n      mstore\n      pop\n        /* \"contracts/SimpleStorage.sol\":1340:1405  People memory newPerson=People({favNumber:_favNumber,name:_name}) */\n      swap1\n      pop\n        /* \"contracts/SimpleStorage.sol\":1416:1422  people */\n      0x04\n        /* \"contracts/SimpleStorage.sol\":1428:1437  newPerson */\n      dup2\n        /* \"contracts/SimpleStorage.sol\":1416:1438  people.push(newPerson) */\n      swap1\n      dup1\n      0x01\n      dup2\n      sload\n      add\n      dup1\n      dup3\n      sstore\n      dup1\n      swap2\n      pop\n      pop\n      0x01\n      swap1\n      sub\n      swap1\n      0x00\n      mstore\n      keccak256(0x00, 0x20)\n      swap1\n      0x02\n      mul\n      add\n      0x00\n      swap1\n      swap2\n      swap1\n      swap2\n      swap1\n      swap2\n      pop\n      0x00\n      dup3\n      add\n      mload\n      dup2\n      0x00\n      add\n      sstore\n      0x20\n      dup3\n      add\n      mload\n      dup2\n      0x01\n      add\n      swap1\n      dup1\n      mload\n      swap1\n      0x20\n      add\n      swap1\n      tag_66\n      swap3\n      swap2\n      swap1\n      tag_67\n      jump\t// in\n    tag_66:\n      pop\n      pop\n      pop\n        /* \"contracts/SimpleStorage.sol\":1563:1573  _favNumber */\n      dup3\n        /* \"contracts/SimpleStorage.sol\":1540:1555  nameToFavNumber */\n      0x01\n        /* \"contracts/SimpleStorage.sol\":1556:1561  _name */\n      dup4\n        /* \"contracts/SimpleStorage.sol\":1540:1562  nameToFavNumber[_name] */\n      mload(0x40)\n      tag_68\n      swap2\n      swap1\n      tag_69\n      jump\t// in\n    tag_68:\n      swap1\n      dup2\n      mstore\n      0x20\n      add\n      mload(0x40)\n      dup1\n      swap2\n      sub\n      swap1\n      keccak256\n        /* \"contracts/SimpleStorage.sol\":1540:1573  nameToFavNumber[_name]=_favNumber */\n      dup2\n      swap1\n      sstore\n      pop\n        /* \"contracts/SimpleStorage.sol\":1332:1578  {... */\n      pop\n        /* \"contracts/SimpleStorage.sol\":1269:1578  function addperson(uint _favNumber, string memory _name) public{... */\n      pop\n      pop\n      jump\t// out\n        /* \"contracts/SimpleStorage.sol\":304:329  uint256 public  favNumber */\n    tag_42:\n      sload(0x00)\n      dup2\n      jump\t// out\n    tag_67:\n      dup3\n      dup1\n      sload\n      tag_70\n      swap1\n      tag_52\n      jump\t// in\n    tag_70:\n      swap1\n      0x00\n      mstore\n      keccak256(0x00, 0x20)\n      swap1\n      0x1f\n      add\n      0x20\n      swap1\n      div\n      dup2\n      add\n      swap3\n      dup3\n      tag_72\n      jumpi\n      0x00\n      dup6\n      sstore\n      jump(tag_71)\n    tag_72:\n      dup3\n      0x1f\n      lt\n      tag_73\n      jumpi\n      dup1\n      mload\n      not(0xff)\n      and\n      dup4\n      dup1\n      add\n      or\n      dup6\n      sstore\n      jump(tag_71)\n    tag_73:\n      dup3\n      dup1\n      add\n      0x01\n      add\n      dup6\n      sstore\n      dup3\n      iszero\n      tag_71\n      jumpi\n      swap2\n      dup3\n      add\n    tag_74:\n      dup3\n      dup2\n      gt\n      iszero\n      tag_75\n      jumpi\n      dup3\n      mload\n      dup3\n      sstore\n      swap2\n      0x20\n      add\n      swap2\n      swap1\n      0x01\n      add\n      swap1\n      jump(tag_74)\n    tag_75:\n    tag_71:\n      pop\n      swap1\n      pop\n      tag_76\n      swap2\n      swap1\n      tag_77\n      jump\t// in\n    tag_76:\n      pop\n      swap1\n      jump\t// out\n    tag_77:\n    tag_78:\n      dup1\n      dup3\n      gt\n      iszero\n      tag_79\n      jumpi\n      0x00\n      dup2\n      0x00\n      swap1\n      sstore\n      pop\n      0x01\n      add\n      jump(tag_78)\n    tag_79:\n      pop\n      swap1\n      jump\t// out\n        /* \"#utility.yul\":7:84   */\n    tag_80:\n        /* \"#utility.yul\":44:51   */\n      0x00\n        /* \"#utility.yul\":73:78   */\n      dup2\n        /* \"#utility.yul\":62:78   */\n      swap1\n      pop\n        /* \"#utility.yul\":7:84   */\n      swap2\n      swap1\n      pop\n      jump\t// out\n        /* \"#utility.yul\":90:208   */\n    tag_81:\n        /* \"#utility.yul\":177:201   */\n      tag_108\n        /* \"#utility.yul\":195:200   */\n      dup2\n        /* \"#utility.yul\":177:201   */\n      tag_80\n      jump\t// in\n    tag_108:\n        /* \"#utility.yul\":172:175   */\n      dup3\n        /* \"#utility.yul\":165:202   */\n      mstore\n        /* \"#utility.yul\":90:208   */\n      pop\n      pop\n      jump\t// out\n        /* \"#utility.yul\":214:436   */\n    tag_15:\n        /* \"#utility.yul\":307:311   */\n      0x00\n        /* \"#utility.yul\":345:347   */\n      0x20\n        /* \"#utility.yul\":334:343   */\n      dup3\n        /* \"#utility.yul\":330:348   */\n      add\n        /* \"#utility.yul\":322:348   */\n      swap1\n      pop\n        /* \"#utility.yul\":358:429   */\n      tag_110\n        /* \"#utility.yul\":426:427   */\n      0x00\n        /* \"#utility.yul\":415:424   */\n      dup4\n        /* \"#utility.yul\":411:428   */\n      add\n        /* \"#utility.yul\":402:408   */\n      dup5\n        /* \"#utility.yul\":358:429   */\n      tag_81\n      jump\t// in\n    tag_110:\n        /* \"#utility.yul\":214:436   */\n      swap3\n      swap2\n      pop\n      pop\n      jump\t// out\n        /* \"#utility.yul\":442:517   */\n    tag_82:\n        /* \"#utility.yul\":475:481   */\n      0x00\n        /* \"#utility.yul\":508:510   */\n      0x40\n        /* \"#utility.yul\":502:511   */\n      mload\n        /* \"#utility.yul\":492:511   */\n      swap1\n      pop\n        /* \"#utility.yul\":442:517   */\n      swap1\n      jump\t// out\n        /* \"#utility.yul\":523:640   */\n    tag_83:\n        /* \"#utility.yul\":632:633   */\n      0x00\n        /* \"#utility.yul\":629:630   */\n      dup1\n        /* \"#utility.yul\":622:634   */\n      revert\n        /* \"#utility.yul\":646:763   */\n    tag_84:\n        /* \"#utility.yul\":755:756   */\n      0x00\n        /* \"#utility.yul\":752:753   */\n      dup1\n        /* \"#utility.yul\":745:757   */\n      revert\n        /* \"#utility.yul\":769:886   */\n    tag_85:\n        /* \"#utility.yul\":878:879   */\n      0x00\n        /* \"#utility.yul\":875:876   */\n      dup1\n        /* \"#utility.yul\":868:880   */\n      revert\n        /* \"#utility.yul\":892:1009   */\n    tag_86:\n        /* \"#utility.yul\":1001:1002   */\n      0x00\n        /* \"#utility.yul\":998:999   */\n      dup1\n        /* \"#utility.yul\":991:1003   */\n      revert\n        /* \"#utility.yul\":1015:1117   */\n    tag_87:\n        /* \"#utility.yul\":1056:1062   */\n      0x00\n        /* \"#utility.yul\":1107:1109   */\n      0x1f\n        /* \"#utility.yul\":1103:1110   */\n      not\n        /* \"#utility.yul\":1098:1100   */\n      0x1f\n        /* \"#utility.yul\":1091:1096   */\n      dup4\n        /* \"#utility.yul\":1087:1101   */\n      add\n        /* \"#utility.yul\":1083:1111   */\n      and\n        /* \"#utility.yul\":1073:1111   */\n      swap1\n      pop\n        /* \"#utility.yul\":1015:1117   */\n      swap2\n      swap1\n      pop\n      jump\t// out\n        /* \"#utility.yul\":1123:1303   */\n    tag_88:\n        /* \"#utility.yul\":1171:1248   */\n      0x4e487b7100000000000000000000000000000000000000000000000000000000\n        /* \"#utility.yul\":1168:1169   */\n      0x00\n        /* \"#utility.yul\":1161:1249   */\n      mstore\n        /* \"#utility.yul\":1268:1272   */\n      0x41\n        /* \"#utility.yul\":1265:1266   */\n      0x04\n        /* \"#utility.yul\":1258:1273   */\n      mstore\n        /* \"#utility.yul\":1292:1296   */\n      0x24\n        /* \"#utility.yul\":1289:1290   */\n      0x00\n        /* \"#utility.yul\":1282:1297   */\n      revert\n        /* \"#utility.yul\":1309:1590   */\n    tag_89:\n        /* \"#utility.yul\":1392:1419   */\n      tag_119\n        /* \"#utility.yul\":1414:1418   */\n      dup3\n        /* \"#utility.yul\":1392:1419   */\n      tag_87\n      jump\t// in\n    tag_119:\n        /* \"#utility.yul\":1384:1390   */\n      dup2\n        /* \"#utility.yul\":1380:1420   */\n      add\n        /* \"#utility.yul\":1522:1528   */\n      dup2\n        /* \"#utility.yul\":1510:1520   */\n      dup2\n        /* \"#utility.yul\":1507:1529   */\n      lt\n        /* \"#utility.yul\":1486:1504   */\n      0xffffffffffffffff\n        /* \"#utility.yul\":1474:1484   */\n      dup3\n        /* \"#utility.yul\":1471:1505   */\n      gt\n        /* \"#utility.yul\":1468:1530   */\n      or\n        /* \"#utility.yul\":1465:1553   */\n      iszero\n      tag_120\n      jumpi\n        /* \"#utility.yul\":1533:1551   */\n      tag_121\n      tag_88\n      jump\t// in\n    tag_121:\n        /* \"#utility.yul\":1465:1553   */\n    tag_120:\n        /* \"#utility.yul\":1573:1583   */\n      dup1\n        /* \"#utility.yul\":1569:1571   */\n      0x40\n        /* \"#utility.yul\":1562:1584   */\n      mstore\n        /* \"#utility.yul\":1352:1590   */\n      pop\n        /* \"#utility.yul\":1309:1590   */\n      pop\n      pop\n      jump\t// out\n        /* \"#utility.yul\":1596:1725   */\n    tag_90:\n        /* \"#utility.yul\":1630:1636   */\n      0x00\n        /* \"#utility.yul\":1657:1677   */\n      tag_123\n      tag_82\n      jump\t// in\n    tag_123:\n        /* \"#utility.yul\":1647:1677   */\n      swap1\n      pop\n        /* \"#utility.yul\":1686:1719   */\n      tag_124\n        /* \"#utility.yul\":1714:1718   */\n      dup3\n        /* \"#utility.yul\":1706:1712   */\n      dup3\n        /* \"#utility.yul\":1686:1719   */\n      tag_89\n      jump\t// in\n    tag_124:\n        /* \"#utility.yul\":1596:1725   */\n      swap2\n      swap1\n      pop\n      jump\t// out\n        /* \"#utility.yul\":1731:2039   */\n    tag_91:\n        /* \"#utility.yul\":1793:1797   */\n      0x00\n        /* \"#utility.yul\":1883:1901   */\n      0xffffffffffffffff\n        /* \"#utility.yul\":1875:1881   */\n      dup3\n        /* \"#utility.yul\":1872:1902   */\n      gt\n        /* \"#utility.yul\":1869:1925   */\n      iszero\n      tag_126\n      jumpi\n        /* \"#utility.yul\":1905:1923   */\n      tag_127\n      tag_88\n      jump\t// in\n    tag_127:\n        /* \"#utility.yul\":1869:1925   */\n    tag_126:\n        /* \"#utility.yul\":1943:1972   */\n      tag_128\n        /* \"#utility.yul\":1965:1971   */\n      dup3\n        /* \"#utility.yul\":1943:1972   */\n      tag_87\n      jump\t// in\n    tag_128:\n        /* \"#utility.yul\":1935:1972   */\n      swap1\n      pop\n        /* \"#utility.yul\":2027:2031   */\n      0x20\n        /* \"#utility.yul\":2021:2025   */\n      dup2\n        /* \"#utility.yul\":2017:2032   */\n      add\n        /* \"#utility.yul\":2009:2032   */\n      swap1\n      pop\n        /* \"#utility.yul\":1731:2039   */\n      swap2\n      swap1\n      pop\n      jump\t// out\n        /* \"#utility.yul\":2045:2199   */\n    tag_92:\n        /* \"#utility.yul\":2129:2135   */\n      dup3\n        /* \"#utility.yul\":2124:2127   */\n      dup2\n        /* \"#utility.yul\":2119:2122   */\n      dup4\n        /* \"#utility.yul\":2106:2136   */\n      calldatacopy\n        /* \"#utility.yul\":2191:2192   */\n      0x00\n        /* \"#utility.yul\":2182:2188   */\n      dup4\n        /* \"#utility.yul\":2177:2180   */\n      dup4\n        /* \"#utility.yul\":2173:2189   */\n      add\n        /* \"#utility.yul\":2166:2193   */\n      mstore\n        /* \"#utility.yul\":2045:2199   */\n      pop\n      pop\n      pop\n      jump\t// out\n        /* \"#utility.yul\":2205:2617   */\n    tag_93:\n        /* \"#utility.yul\":2283:2288   */\n      0x00\n        /* \"#utility.yul\":2308:2374   */\n      tag_131\n        /* \"#utility.yul\":2324:2373   */\n      tag_132\n        /* \"#utility.yul\":2366:2372   */\n      dup5\n        /* \"#utility.yul\":2324:2373   */\n      tag_91\n      jump\t// in\n    tag_132:\n        /* \"#utility.yul\":2308:2374   */\n      tag_90\n      jump\t// in\n    tag_131:\n        /* \"#utility.yul\":2299:2374   */\n      swap1\n      pop\n        /* \"#utility.yul\":2397:2403   */\n      dup3\n        /* \"#utility.yul\":2390:2395   */\n      dup2\n        /* \"#utility.yul\":2383:2404   */\n      mstore\n        /* \"#utility.yul\":2435:2439   */\n      0x20\n        /* \"#utility.yul\":2428:2433   */\n      dup2\n        /* \"#utility.yul\":2424:2440   */\n      add\n        /* \"#utility.yul\":2473:2476   */\n      dup5\n        /* \"#utility.yul\":2464:2470   */\n      dup5\n        /* \"#utility.yul\":2459:2462   */\n      dup5\n        /* \"#utility.yul\":2455:2471   */\n      add\n        /* \"#utility.yul\":2452:2477   */\n      gt\n        /* \"#utility.yul\":2449:2561   */\n      iszero\n      tag_133\n      jumpi\n        /* \"#utility.yul\":2480:2559   */\n      tag_134\n      tag_86\n      jump\t// in\n    tag_134:\n        /* \"#utility.yul\":2449:2561   */\n    tag_133:\n        /* \"#utility.yul\":2570:2611   */\n      tag_135\n        /* \"#utility.yul\":2604:2610   */\n      dup5\n        /* \"#utility.yul\":2599:2602   */\n      dup3\n        /* \"#utility.yul\":2594:2597   */\n      dup6\n        /* \"#utility.yul\":2570:2611   */\n      tag_92\n      jump\t// in\n    tag_135:\n        /* \"#utility.yul\":2289:2617   */\n      pop\n        /* \"#utility.yul\":2205:2617   */\n      swap4\n      swap3\n      pop\n      pop\n      pop\n      jump\t// out\n        /* \"#utility.yul\":2637:2977   */\n    tag_94:\n        /* \"#utility.yul\":2693:2698   */\n      0x00\n        /* \"#utility.yul\":2742:2745   */\n      dup3\n        /* \"#utility.yul\":2735:2739   */\n      0x1f\n        /* \"#utility.yul\":2727:2733   */\n      dup4\n        /* \"#utility.yul\":2723:2740   */\n      add\n        /* \"#utility.yul\":2719:2746   */\n      slt\n        /* \"#utility.yul\":2709:2831   */\n      tag_137\n      jumpi\n        /* \"#utility.yul\":2750:2829   */\n      tag_138\n      tag_85\n      jump\t// in\n    tag_138:\n        /* \"#utility.yul\":2709:2831   */\n    tag_137:\n        /* \"#utility.yul\":2867:2873   */\n      dup2\n        /* \"#utility.yul\":2854:2874   */\n      calldataload\n        /* \"#utility.yul\":2892:2971   */\n      tag_139\n        /* \"#utility.yul\":2967:2970   */\n      dup5\n        /* \"#utility.yul\":2959:2965   */\n      dup3\n        /* \"#utility.yul\":2952:2956   */\n      0x20\n        /* \"#utility.yul\":2944:2950   */\n      dup7\n        /* \"#utility.yul\":2940:2957   */\n      add\n        /* \"#utility.yul\":2892:2971   */\n      tag_93\n      jump\t// in\n    tag_139:\n        /* \"#utility.yul\":2883:2971   */\n      swap2\n      pop\n        /* \"#utility.yul\":2699:2977   */\n      pop\n        /* \"#utility.yul\":2637:2977   */\n      swap3\n      swap2\n      pop\n      pop\n      jump\t// out\n        /* \"#utility.yul\":2983:3492   */\n    tag_18:\n        /* \"#utility.yul\":3052:3058   */\n      0x00\n        /* \"#utility.yul\":3101:3103   */\n      0x20\n        /* \"#utility.yul\":3089:3098   */\n      dup3\n        /* \"#utility.yul\":3080:3087   */\n      dup5\n        /* \"#utility.yul\":3076:3099   */\n      sub\n        /* \"#utility.yul\":3072:3104   */\n      slt\n        /* \"#utility.yul\":3069:3188   */\n      iszero\n      tag_141\n      jumpi\n        /* \"#utility.yul\":3107:3186   */\n      tag_142\n      tag_83\n      jump\t// in\n    tag_142:\n        /* \"#utility.yul\":3069:3188   */\n    tag_141:\n        /* \"#utility.yul\":3255:3256   */\n      0x00\n        /* \"#utility.yul\":3244:3253   */\n      dup3\n        /* \"#utility.yul\":3240:3257   */\n      add\n        /* \"#utility.yul\":3227:3258   */\n      calldataload\n        /* \"#utility.yul\":3285:3303   */\n      0xffffffffffffffff\n        /* \"#utility.yul\":3277:3283   */\n      dup2\n        /* \"#utility.yul\":3274:3304   */\n      gt\n        /* \"#utility.yul\":3271:3388   */\n      iszero\n      tag_143\n      jumpi\n        /* \"#utility.yul\":3307:3386   */\n      tag_144\n      tag_84\n      jump\t// in\n    tag_144:\n        /* \"#utility.yul\":3271:3388   */\n    tag_143:\n        /* \"#utility.yul\":3412:3475   */\n      tag_145\n        /* \"#utility.yul\":3467:3474   */\n      dup5\n        /* \"#utility.yul\":3458:3464   */\n      dup3\n        /* \"#utility.yul\":3447:3456   */\n      dup6\n        /* \"#utility.yul\":3443:3465   */\n      add\n        /* \"#utility.yul\":3412:3475   */\n      tag_94\n      jump\t// in\n    tag_145:\n        /* \"#utility.yul\":3402:3475   */\n      swap2\n      pop\n        /* \"#utility.yul\":3198:3485   */\n      pop\n        /* \"#utility.yul\":2983:3492   */\n      swap3\n      swap2\n      pop\n      pop\n      jump\t// out\n        /* \"#utility.yul\":3498:3830   */\n    tag_24:\n        /* \"#utility.yul\":3619:3623   */\n      0x00\n        /* \"#utility.yul\":3657:3659   */\n      0x40\n        /* \"#utility.yul\":3646:3655   */\n      dup3\n        /* \"#utility.yul\":3642:3660   */\n      add\n        /* \"#utility.yul\":3634:3660   */\n      swap1\n      pop\n        /* \"#utility.yul\":3670:3741   */\n      tag_147\n        /* \"#utility.yul\":3738:3739   */\n      0x00\n        /* \"#utility.yul\":3727:3736   */\n      dup4\n        /* \"#utility.yul\":3723:3740   */\n      add\n        /* \"#utility.yul\":3714:3720   */\n      dup6\n        /* \"#utility.yul\":3670:3741   */\n      tag_81\n      jump\t// in\n    tag_147:\n        /* \"#utility.yul\":3751:3823   */\n      tag_148\n        /* \"#utility.yul\":3819:3821   */\n      0x20\n        /* \"#utility.yul\":3808:3817   */\n      dup4\n        /* \"#utility.yul\":3804:3822   */\n      add\n        /* \"#utility.yul\":3795:3801   */\n      dup5\n        /* \"#utility.yul\":3751:3823   */\n      tag_81\n      jump\t// in\n    tag_148:\n        /* \"#utility.yul\":3498:3830   */\n      swap4\n      swap3\n      pop\n      pop\n      pop\n      jump\t// out\n        /* \"#utility.yul\":3836:3958   */\n    tag_95:\n        /* \"#utility.yul\":3909:3933   */\n      tag_150\n        /* \"#utility.yul\":3927:3932   */\n      dup2\n        /* \"#utility.yul\":3909:3933   */\n      tag_80\n      jump\t// in\n    tag_150:\n        /* \"#utility.yul\":3902:3907   */\n      dup2\n        /* \"#utility.yul\":3899:3934   */\n      eq\n        /* \"#utility.yul\":3889:3952   */\n      tag_151\n      jumpi\n        /* \"#utility.yul\":3948:3949   */\n      0x00\n        /* \"#utility.yul\":3945:3946   */\n      dup1\n        /* \"#utility.yul\":3938:3950   */\n      revert\n        /* \"#utility.yul\":3889:3952   */\n    tag_151:\n        /* \"#utility.yul\":3836:3958   */\n      pop\n      jump\t// out\n        /* \"#utility.yul\":3964:4103   */\n    tag_96:\n        /* \"#utility.yul\":4010:4015   */\n      0x00\n        /* \"#utility.yul\":4048:4054   */\n      dup2\n        /* \"#utility.yul\":4035:4055   */\n      calldataload\n        /* \"#utility.yul\":4026:4055   */\n      swap1\n      pop\n        /* \"#utility.yul\":4064:4097   */\n      tag_153\n        /* \"#utility.yul\":4091:4096   */\n      dup2\n        /* \"#utility.yul\":4064:4097   */\n      tag_95\n      jump\t// in\n    tag_153:\n        /* \"#utility.yul\":3964:4103   */\n      swap3\n      swap2\n      pop\n      pop\n      jump\t// out\n        /* \"#utility.yul\":4109:4438   */\n    tag_27:\n        /* \"#utility.yul\":4168:4174   */\n      0x00\n        /* \"#utility.yul\":4217:4219   */\n      0x20\n        /* \"#utility.yul\":4205:4214   */\n      dup3\n        /* \"#utility.yul\":4196:4203   */\n      dup5\n        /* \"#utility.yul\":4192:4215   */\n      sub\n        /* \"#utility.yul\":4188:4220   */\n      slt\n        /* \"#utility.yul\":4185:4304   */\n      iszero\n      tag_155\n      jumpi\n        /* \"#utility.yul\":4223:4302   */\n      tag_156\n      tag_83\n      jump\t// in\n    tag_156:\n        /* \"#utility.yul\":4185:4304   */\n    tag_155:\n        /* \"#utility.yul\":4343:4344   */\n      0x00\n        /* \"#utility.yul\":4368:4421   */\n      tag_157\n        /* \"#utility.yul\":4413:4420   */\n      dup5\n        /* \"#utility.yul\":4404:4410   */\n      dup3\n        /* \"#utility.yul\":4393:4402   */\n      dup6\n        /* \"#utility.yul\":4389:4411   */\n      add\n        /* \"#utility.yul\":4368:4421   */\n      tag_96\n      jump\t// in\n    tag_157:\n        /* \"#utility.yul\":4358:4421   */\n      swap2\n      pop\n        /* \"#utility.yul\":4314:4431   */\n      pop\n        /* \"#utility.yul\":4109:4438   */\n      swap3\n      swap2\n      pop\n      pop\n      jump\t// out\n        /* \"#utility.yul\":4444:4543   */\n    tag_97:\n        /* \"#utility.yul\":4496:4502   */\n      0x00\n        /* \"#utility.yul\":4530:4535   */\n      dup2\n        /* \"#utility.yul\":4524:4536   */\n      mload\n        /* \"#utility.yul\":4514:4536   */\n      swap1\n      pop\n        /* \"#utility.yul\":4444:4543   */\n      swap2\n      swap1\n      pop\n      jump\t// out\n        /* \"#utility.yul\":4549:4718   */\n    tag_98:\n        /* \"#utility.yul\":4633:4644   */\n      0x00\n        /* \"#utility.yul\":4667:4673   */\n      dup3\n        /* \"#utility.yul\":4662:4665   */\n      dup3\n        /* \"#utility.yul\":4655:4674   */\n      mstore\n        /* \"#utility.yul\":4707:4711   */\n      0x20\n        /* \"#utility.yul\":4702:4705   */\n      dup3\n        /* \"#utility.yul\":4698:4712   */\n      add\n        /* \"#utility.yul\":4683:4712   */\n      swap1\n      pop\n        /* \"#utility.yul\":4549:4718   */\n      swap3\n      swap2\n      pop\n      pop\n      jump\t// out\n        /* \"#utility.yul\":4724:5031   */\n    tag_99:\n        /* \"#utility.yul\":4792:4793   */\n      0x00\n        /* \"#utility.yul\":4802:4915   */\n    tag_161:\n        /* \"#utility.yul\":4816:4822   */\n      dup4\n        /* \"#utility.yul\":4813:4814   */\n      dup2\n        /* \"#utility.yul\":4810:4823   */\n      lt\n        /* \"#utility.yul\":4802:4915   */\n      iszero\n      tag_163\n      jumpi\n        /* \"#utility.yul\":4901:4902   */\n      dup1\n        /* \"#utility.yul\":4896:4899   */\n      dup3\n        /* \"#utility.yul\":4892:4903   */\n      add\n        /* \"#utility.yul\":4886:4904   */\n      mload\n        /* \"#utility.yul\":4882:4883   */\n      dup2\n        /* \"#utility.yul\":4877:4880   */\n      dup5\n        /* \"#utility.yul\":4873:4884   */\n      add\n        /* \"#utility.yul\":4866:4905   */\n      mstore\n        /* \"#utility.yul\":4838:4840   */\n      0x20\n        /* \"#utility.yul\":4835:4836   */\n      dup2\n        /* \"#utility.yul\":4831:4841   */\n      add\n        /* \"#utility.yul\":4826:4841   */\n      swap1\n      pop\n        /* \"#utility.yul\":4802:4915   */\n      jump(tag_161)\n    tag_163:\n        /* \"#utility.yul\":4933:4939   */\n      dup4\n        /* \"#utility.yul\":4930:4931   */\n      dup2\n        /* \"#utility.yul\":4927:4940   */\n      gt\n        /* \"#utility.yul\":4924:5025   */\n      iszero\n      tag_164\n      jumpi\n        /* \"#utility.yul\":5013:5014   */\n      0x00\n        /* \"#utility.yul\":5004:5010   */\n      dup5\n        /* \"#utility.yul\":4999:5002   */\n      dup5\n        /* \"#utility.yul\":4995:5011   */\n      add\n        /* \"#utility.yul\":4988:5015   */\n      mstore\n        /* \"#utility.yul\":4924:5025   */\n    tag_164:\n        /* \"#utility.yul\":4773:5031   */\n      pop\n        /* \"#utility.yul\":4724:5031   */\n      pop\n      pop\n      pop\n      jump\t// out\n        /* \"#utility.yul\":5037:5401   */\n    tag_100:\n        /* \"#utility.yul\":5125:5128   */\n      0x00\n        /* \"#utility.yul\":5153:5192   */\n      tag_166\n        /* \"#utility.yul\":5186:5191   */\n      dup3\n        /* \"#utility.yul\":5153:5192   */\n      tag_97\n      jump\t// in\n    tag_166:\n        /* \"#utility.yul\":5208:5279   */\n      tag_167\n        /* \"#utility.yul\":5272:5278   */\n      dup2\n        /* \"#utility.yul\":5267:5270   */\n      dup6\n        /* \"#utility.yul\":5208:5279   */\n      tag_98\n      jump\t// in\n    tag_167:\n        /* \"#utility.yul\":5201:5279   */\n      swap4\n      pop\n        /* \"#utility.yul\":5288:5340   */\n      tag_168\n        /* \"#utility.yul\":5333:5339   */\n      dup2\n        /* \"#utility.yul\":5328:5331   */\n      dup6\n        /* \"#utility.yul\":5321:5325   */\n      0x20\n        /* \"#utility.yul\":5314:5319   */\n      dup7\n        /* \"#utility.yul\":5310:5326   */\n      add\n        /* \"#utility.yul\":5288:5340   */\n      tag_99\n      jump\t// in\n    tag_168:\n        /* \"#utility.yul\":5365:5394   */\n      tag_169\n        /* \"#utility.yul\":5387:5393   */\n      dup2\n        /* \"#utility.yul\":5365:5394   */\n      tag_87\n      jump\t// in\n    tag_169:\n        /* \"#utility.yul\":5360:5363   */\n      dup5\n        /* \"#utility.yul\":5356:5395   */\n      add\n        /* \"#utility.yul\":5349:5395   */\n      swap2\n      pop\n        /* \"#utility.yul\":5129:5401   */\n      pop\n        /* \"#utility.yul\":5037:5401   */\n      swap3\n      swap2\n      pop\n      pop\n      jump\t// out\n        /* \"#utility.yul\":5407:5830   */\n    tag_32:\n        /* \"#utility.yul\":5548:5552   */\n      0x00\n        /* \"#utility.yul\":5586:5588   */\n      0x40\n        /* \"#utility.yul\":5575:5584   */\n      dup3\n        /* \"#utility.yul\":5571:5589   */\n      add\n        /* \"#utility.yul\":5563:5589   */\n      swap1\n      pop\n        /* \"#utility.yul\":5599:5670   */\n      tag_171\n        /* \"#utility.yul\":5667:5668   */\n      0x00\n        /* \"#utility.yul\":5656:5665   */\n      dup4\n        /* \"#utility.yul\":5652:5669   */\n      add\n        /* \"#utility.yul\":5643:5649   */\n      dup6\n        /* \"#utility.yul\":5599:5670   */\n      tag_81\n      jump\t// in\n    tag_171:\n        /* \"#utility.yul\":5717:5726   */\n      dup2\n        /* \"#utility.yul\":5711:5715   */\n      dup2\n        /* \"#utility.yul\":5707:5727   */\n      sub\n        /* \"#utility.yul\":5702:5704   */\n      0x20\n        /* \"#utility.yul\":5691:5700   */\n      dup4\n        /* \"#utility.yul\":5687:5705   */\n      add\n        /* \"#utility.yul\":5680:5728   */\n      mstore\n        /* \"#utility.yul\":5745:5823   */\n      tag_172\n        /* \"#utility.yul\":5818:5822   */\n      dup2\n        /* \"#utility.yul\":5809:5815   */\n      dup5\n        /* \"#utility.yul\":5745:5823   */\n      tag_100\n      jump\t// in\n    tag_172:\n        /* \"#utility.yul\":5737:5823   */\n      swap1\n      pop\n        /* \"#utility.yul\":5407:5830   */\n      swap4\n      swap3\n      pop\n      pop\n      pop\n      jump\t// out\n        /* \"#utility.yul\":5836:6490   */\n    tag_39:\n        /* \"#utility.yul\":5914:5920   */\n      0x00\n        /* \"#utility.yul\":5922:5928   */\n      dup1\n        /* \"#utility.yul\":5971:5973   */\n      0x40\n        /* \"#utility.yul\":5959:5968   */\n      dup4\n        /* \"#utility.yul\":5950:5957   */\n      dup6\n        /* \"#utility.yul\":5946:5969   */\n      sub\n        /* \"#utility.yul\":5942:5974   */\n      slt\n        /* \"#utility.yul\":5939:6058   */\n      iszero\n      tag_174\n      jumpi\n        /* \"#utility.yul\":5977:6056   */\n      tag_175\n      tag_83\n      jump\t// in\n    tag_175:\n        /* \"#utility.yul\":5939:6058   */\n    tag_174:\n        /* \"#utility.yul\":6097:6098   */\n      0x00\n        /* \"#utility.yul\":6122:6175   */\n      tag_176\n        /* \"#utility.yul\":6167:6174   */\n      dup6\n        /* \"#utility.yul\":6158:6164   */\n      dup3\n        /* \"#utility.yul\":6147:6156   */\n      dup7\n        /* \"#utility.yul\":6143:6165   */\n      add\n        /* \"#utility.yul\":6122:6175   */\n      tag_96\n      jump\t// in\n    tag_176:\n        /* \"#utility.yul\":6112:6175   */\n      swap3\n      pop\n        /* \"#utility.yul\":6068:6185   */\n      pop\n        /* \"#utility.yul\":6252:6254   */\n      0x20\n        /* \"#utility.yul\":6241:6250   */\n      dup4\n        /* \"#utility.yul\":6237:6255   */\n      add\n        /* \"#utility.yul\":6224:6256   */\n      calldataload\n        /* \"#utility.yul\":6283:6301   */\n      0xffffffffffffffff\n        /* \"#utility.yul\":6275:6281   */\n      dup2\n        /* \"#utility.yul\":6272:6302   */\n      gt\n        /* \"#utility.yul\":6269:6386   */\n      iszero\n      tag_177\n      jumpi\n        /* \"#utility.yul\":6305:6384   */\n      tag_178\n      tag_84\n      jump\t// in\n    tag_178:\n        /* \"#utility.yul\":6269:6386   */\n    tag_177:\n        /* \"#utility.yul\":6410:6473   */\n      tag_179\n        /* \"#utility.yul\":6465:6472   */\n      dup6\n        /* \"#utility.yul\":6456:6462   */\n      dup3\n        /* \"#utility.yul\":6445:6454   */\n      dup7\n        /* \"#utility.yul\":6441:6463   */\n      add\n        /* \"#utility.yul\":6410:6473   */\n      tag_94\n      jump\t// in\n    tag_179:\n        /* \"#utility.yul\":6400:6473   */\n      swap2\n      pop\n        /* \"#utility.yul\":6195:6483   */\n      pop\n        /* \"#utility.yul\":5836:6490   */\n      swap3\n      pop\n      swap3\n      swap1\n      pop\n      jump\t// out\n        /* \"#utility.yul\":6496:6676   */\n    tag_101:\n        /* \"#utility.yul\":6544:6621   */\n      0x4e487b7100000000000000000000000000000000000000000000000000000000\n        /* \"#utility.yul\":6541:6542   */\n      0x00\n        /* \"#utility.yul\":6534:6622   */\n      mstore\n        /* \"#utility.yul\":6641:6645   */\n      0x11\n        /* \"#utility.yul\":6638:6639   */\n      0x04\n        /* \"#utility.yul\":6631:6646   */\n      mstore\n        /* \"#utility.yul\":6665:6669   */\n      0x24\n        /* \"#utility.yul\":6662:6663   */\n      0x00\n        /* \"#utility.yul\":6655:6670   */\n      revert\n        /* \"#utility.yul\":6682:6987   */\n    tag_47:\n        /* \"#utility.yul\":6722:6725   */\n      0x00\n        /* \"#utility.yul\":6741:6761   */\n      tag_182\n        /* \"#utility.yul\":6759:6760   */\n      dup3\n        /* \"#utility.yul\":6741:6761   */\n      tag_80\n      jump\t// in\n    tag_182:\n        /* \"#utility.yul\":6736:6761   */\n      swap2\n      pop\n        /* \"#utility.yul\":6775:6795   */\n      tag_183\n        /* \"#utility.yul\":6793:6794   */\n      dup4\n        /* \"#utility.yul\":6775:6795   */\n      tag_80\n      jump\t// in\n    tag_183:\n        /* \"#utility.yul\":6770:6795   */\n      swap3\n      pop\n        /* \"#utility.yul\":6929:6930   */\n      dup3\n        /* \"#utility.yul\":6861:6927   */\n      0xffffffffffffffffffffffffffffffffffffffffffffffffffffffffffffffff\n        /* \"#utility.yul\":6857:6931   */\n      sub\n        /* \"#utility.yul\":6854:6855   */\n      dup3\n        /* \"#utility.yul\":6851:6932   */\n      gt\n        /* \"#utility.yul\":6848:6955   */\n      iszero\n      tag_184\n      jumpi\n        /* \"#utility.yul\":6935:6953   */\n      tag_185\n      tag_101\n      jump\t// in\n    tag_185:\n        /* \"#utility.yul\":6848:6955   */\n    tag_184:\n        /* \"#utility.yul\":6979:6980   */\n      dup3\n        /* \"#utility.yul\":6976:6977   */\n      dup3\n        /* \"#utility.yul\":6972:6981   */\n      add\n        /* \"#utility.yul\":6965:6981   */\n      swap1\n      pop\n        /* \"#utility.yul\":6682:6987   */\n      swap3\n      swap2\n      pop\n      pop\n      jump\t// out\n        /* \"#utility.yul\":6993:7341   */\n    tag_49:\n        /* \"#utility.yul\":7033:7040   */\n      0x00\n        /* \"#utility.yul\":7056:7076   */\n      tag_187\n        /* \"#utility.yul\":7074:7075   */\n      dup3\n        /* \"#utility.yul\":7056:7076   */\n      tag_80\n      jump\t// in\n    tag_187:\n        /* \"#utility.yul\":7051:7076   */\n      swap2\n      pop\n        /* \"#utility.yul\":7090:7110   */\n      tag_188\n        /* \"#utility.yul\":7108:7109   */\n      dup4\n        /* \"#utility.yul\":7090:7110   */\n      tag_80\n      jump\t// in\n    tag_188:\n        /* \"#utility.yul\":7085:7110   */\n      swap3\n      pop\n        /* \"#utility.yul\":7278:7279   */\n      dup2\n        /* \"#utility.yul\":7210:7276   */\n      0xffffffffffffffffffffffffffffffffffffffffffffffffffffffffffffffff\n        /* \"#utility.yul\":7206:7280   */\n      div\n        /* \"#utility.yul\":7203:7204   */\n      dup4\n        /* \"#utility.yul\":7200:7281   */\n      gt\n        /* \"#utility.yul\":7195:7196   */\n      dup3\n        /* \"#utility.yul\":7188:7197   */\n      iszero\n        /* \"#utility.yul\":7181:7198   */\n      iszero\n        /* \"#utility.yul\":7177:7282   */\n      and\n        /* \"#utility.yul\":7174:7305   */\n      iszero\n      tag_189\n      jumpi\n        /* \"#utility.yul\":7285:7303   */\n      tag_190\n      tag_101\n      jump\t// in\n    tag_190:\n        /* \"#utility.yul\":7174:7305   */\n    tag_189:\n        /* \"#utility.yul\":7333:7334   */\n      dup3\n        /* \"#utility.yul\":7330:7331   */\n      dup3\n        /* \"#utility.yul\":7326:7335   */\n      mul\n        /* \"#utility.yul\":7315:7335   */\n      swap1\n      pop\n        /* \"#utility.yul\":6993:7341   */\n      swap3\n      swap2\n      pop\n      pop\n      jump\t// out\n        /* \"#utility.yul\":7347:7527   */\n    tag_102:\n        /* \"#utility.yul\":7395:7472   */\n      0x4e487b7100000000000000000000000000000000000000000000000000000000\n        /* \"#utility.yul\":7392:7393   */\n      0x00\n        /* \"#utility.yul\":7385:7473   */\n      mstore\n        /* \"#utility.yul\":7492:7496   */\n      0x22\n        /* \"#utility.yul\":7489:7490   */\n      0x04\n        /* \"#utility.yul\":7482:7497   */\n      mstore\n        /* \"#utility.yul\":7516:7520   */\n      0x24\n        /* \"#utility.yul\":7513:7514   */\n      0x00\n        /* \"#utility.yul\":7506:7521   */\n      revert\n        /* \"#utility.yul\":7533:7853   */\n    tag_52:\n        /* \"#utility.yul\":7577:7583   */\n      0x00\n        /* \"#utility.yul\":7614:7615   */\n      0x02\n        /* \"#utility.yul\":7608:7612   */\n      dup3\n        /* \"#utility.yul\":7604:7616   */\n      div\n        /* \"#utility.yul\":7594:7616   */\n      swap1\n      pop\n        /* \"#utility.yul\":7661:7662   */\n      0x01\n        /* \"#utility.yul\":7655:7659   */\n      dup3\n        /* \"#utility.yul\":7651:7663   */\n      and\n        /* \"#utility.yul\":7682:7700   */\n      dup1\n        /* \"#utility.yul\":7672:7753   */\n      tag_193\n      jumpi\n        /* \"#utility.yul\":7738:7742   */\n      0x7f\n        /* \"#utility.yul\":7730:7736   */\n      dup3\n        /* \"#utility.yul\":7726:7743   */\n      and\n        /* \"#utility.yul\":7716:7743   */\n      swap2\n      pop\n        /* \"#utility.yul\":7672:7753   */\n    tag_193:\n        /* \"#utility.yul\":7800:7802   */\n      0x20\n        /* \"#utility.yul\":7792:7798   */\n      dup3\n        /* \"#utility.yul\":7789:7803   */\n      lt\n        /* \"#utility.yul\":7769:7787   */\n      dup2\n        /* \"#utility.yul\":7766:7804   */\n      eq\n        /* \"#utility.yul\":7763:7847   */\n      iszero\n      tag_194\n      jumpi\n        /* \"#utility.yul\":7819:7837   */\n      tag_195\n      tag_102\n      jump\t// in\n    tag_195:\n        /* \"#utility.yul\":7763:7847   */\n    tag_194:\n        /* \"#utility.yul\":7584:7853   */\n      pop\n        /* \"#utility.yul\":7533:7853   */\n      swap2\n      swap1\n      pop\n      jump\t// out\n        /* \"#utility.yul\":7859:8007   */\n    tag_103:\n        /* \"#utility.yul\":7961:7972   */\n      0x00\n        /* \"#utility.yul\":7998:8001   */\n      dup2\n        /* \"#utility.yul\":7983:8001   */\n      swap1\n      pop\n        /* \"#utility.yul\":7859:8007   */\n      swap3\n      swap2\n      pop\n      pop\n      jump\t// out\n        /* \"#utility.yul\":8013:8390   */\n    tag_104:\n        /* \"#utility.yul\":8119:8122   */\n      0x00\n        /* \"#utility.yul\":8147:8186   */\n      tag_198\n        /* \"#utility.yul\":8180:8185   */\n      dup3\n        /* \"#utility.yul\":8147:8186   */\n      tag_97\n      jump\t// in\n    tag_198:\n        /* \"#utility.yul\":8202:8291   */\n      tag_199\n        /* \"#utility.yul\":8284:8290   */\n      dup2\n        /* \"#utility.yul\":8279:8282   */\n      dup6\n        /* \"#utility.yul\":8202:8291   */\n      tag_103\n      jump\t// in\n    tag_199:\n        /* \"#utility.yul\":8195:8291   */\n      swap4\n      pop\n        /* \"#utility.yul\":8300:8352   */\n      tag_200\n        /* \"#utility.yul\":8345:8351   */\n      dup2\n        /* \"#utility.yul\":8340:8343   */\n      dup6\n        /* \"#utility.yul\":8333:8337   */\n      0x20\n        /* \"#utility.yul\":8326:8331   */\n      dup7\n        /* \"#utility.yul\":8322:8338   */\n      add\n        /* \"#utility.yul\":8300:8352   */\n      tag_99\n      jump\t// in\n    tag_200:\n        /* \"#utility.yul\":8377:8383   */\n      dup1\n        /* \"#utility.yul\":8372:8375   */\n      dup5\n        /* \"#utility.yul\":8368:8384   */\n      add\n        /* \"#utility.yul\":8361:8384   */\n      swap2\n      pop\n        /* \"#utility.yul\":8123:8390   */\n      pop\n        /* \"#utility.yul\":8013:8390   */\n      swap3\n      swap2\n      pop\n      pop\n      jump\t// out\n        /* \"#utility.yul\":8396:8671   */\n    tag_69:\n        /* \"#utility.yul\":8528:8531   */\n      0x00\n        /* \"#utility.yul\":8550:8645   */\n      tag_202\n        /* \"#utility.yul\":8641:8644   */\n      dup3\n        /* \"#utility.yul\":8632:8638   */\n      dup5\n        /* \"#utility.yul\":8550:8645   */\n      tag_104\n      jump\t// in\n    tag_202:\n        /* \"#utility.yul\":8543:8645   */\n      swap2\n      pop\n        /* \"#utility.yul\":8662:8665   */\n      dup2\n        /* \"#utility.yul\":8655:8665   */\n      swap1\n      pop\n        /* \"#utility.yul\":8396:8671   */\n      swap3\n      swap2\n      pop\n      pop\n      jump\t// out\n\n    auxdata: 0xa264697066735822122040b0ddebb7c387b7ecf99eb9462dbec9172edfaf623f28a32b141df3f73d436f64736f6c63430008080033\n}\n",
				"bytecode": {
					"linkReferences": {},
					"object": "60806040526040518060400160405280600281526020016040518060400160405280600581526020017f7261646861000000000000000000000000000000000000000000000000000000815250815250600260008201518160000155602082015181600101908051906020019061007792919061008c565b50505034801561008657600080fd5b50610190565b8280546100989061015e565b90600052602060002090601f0160209004810192826100ba5760008555610101565b82601f106100d357805160ff1916838001178555610101565b82800160010185558215610101579182015b828111156101005782518255916020019190600101906100e5565b5b50905061010e9190610112565b5090565b5b8082111561012b576000816000905550600101610113565b5090565b7f4e487b7100000000000000000000000000000000000000000000000000000000600052602260045260246000fd5b6000600282049050600182168061017657607f821691505b6020821081141561018a5761018961012f565b5b50919050565b6109dd8061019f6000396000f3fe608060405234801561001057600080fd5b50600436106100885760003560e01c806377ec2b551161005b57806377ec2b55146101165780639e7a13ad14610135578063a727911614610166578063c7a0d9f61461018257610088565b80632e64cec11461008d57806343ec8f47146100ab5780634f2be91f146100db5780636057361d146100fa575b600080fd5b6100956101a0565b6040516100a291906104c0565b60405180910390f35b6100c560048036038101906100c09190610635565b6101a9565b6040516100d291906104c0565b60405180910390f35b6100e36101d7565b6040516100f192919061067e565b60405180910390f35b610114600480360381019061010f91906106d3565b610208565b005b61011e610212565b60405161012c929190610788565b60405180910390f35b61014f600480360381019061014a91906106d3565b6102ac565b60405161015d929190610788565b60405180910390f35b610180600480360381019061017b91906107b8565b610368565b005b61018a6103fe565b60405161019791906104c0565b60405180910390f35b60008054905090565b6001818051602081018201805184825260208301602085012081835280955050505050506000915090505481565b60008060006002905060006005905080826101f29190610843565b935080826102009190610899565b925050509091565b8060008190555050565b600280600001549080600101805461022990610922565b80601f016020809104026020016040519081016040528092919081815260200182805461025590610922565b80156102a25780601f10610277576101008083540402835291602001916102a2565b820191906000526020600020905b81548152906001019060200180831161028557829003601f168201915b5050505050905082565b600481815481106102bc57600080fd5b90600052602060002090600202016000915090508060000154908060010180546102e590610922565b80601f016020809104026020016040519081016040528092919081815260200182805461031190610922565b801561035e5780601f106103335761010080835404028352916020019161035e565b820191906000526020600020905b81548152906001019060200180831161034157829003601f168201915b5050505050905082565b6000604051806040016040528084815260200183815250905060048190806001815401808255809150506001900390600052602060002090600202016000909190919091506000820151816000015560208201518160010190805190602001906103d3929190610404565b505050826001836040516103e79190610990565b908152602001604051809103902081905550505050565b60005481565b82805461041090610922565b90600052602060002090601f0160209004810192826104325760008555610479565b82601f1061044b57805160ff1916838001178555610479565b82800160010185558215610479579182015b8281111561047857825182559160200191906001019061045d565b5b509050610486919061048a565b5090565b5b808211156104a357600081600090555060010161048b565b5090565b6000819050919050565b6104ba816104a7565b82525050565b60006020820190506104d560008301846104b1565b92915050565b6000604051905090565b600080fd5b600080fd5b600080fd5b600080fd5b6000601f19601f8301169050919050565b7f4e487b7100000000000000000000000000000000000000000000000000000000600052604160045260246000fd5b610542826104f9565b810181811067ffffffffffffffff821117156105615761056061050a565b5b80604052505050565b60006105746104db565b90506105808282610539565b919050565b600067ffffffffffffffff8211156105a05761059f61050a565b5b6105a9826104f9565b9050602081019050919050565b82818337600083830152505050565b60006105d86105d384610585565b61056a565b9050828152602081018484840111156105f4576105f36104f4565b5b6105ff8482856105b6565b509392505050565b600082601f83011261061c5761061b6104ef565b5b813561062c8482602086016105c5565b91505092915050565b60006020828403121561064b5761064a6104e5565b5b600082013567ffffffffffffffff811115610669576106686104ea565b5b61067584828501610607565b91505092915050565b600060408201905061069360008301856104b1565b6106a060208301846104b1565b9392505050565b6106b0816104a7565b81146106bb57600080fd5b50565b6000813590506106cd816106a7565b92915050565b6000602082840312156106e9576106e86104e5565b5b60006106f7848285016106be565b91505092915050565b600081519050919050565b600082825260208201905092915050565b60005b8381101561073a57808201518184015260208101905061071f565b83811115610749576000848401525b50505050565b600061075a82610700565b610764818561070b565b935061077481856020860161071c565b61077d816104f9565b840191505092915050565b600060408201905061079d60008301856104b1565b81810360208301526107af818461074f565b90509392505050565b600080604083850312156107cf576107ce6104e5565b5b60006107dd858286016106be565b925050602083013567ffffffffffffffff8111156107fe576107fd6104ea565b5b61080a85828601610607565b9150509250929050565b7f4e487b7100000000000000000000000000000000000000000000000000000000600052601160045260246000fd5b600061084e826104a7565b9150610859836104a7565b9250827fffffffffffffffffffffffffffffffffffffffffffffffffffffffffffffffff0382111561088e5761088d610814565b5b828201905092915050565b60006108a4826104a7565b91506108af836104a7565b9250817fffffffffffffffffffffffffffffffffffffffffffffffffffffffffffffffff04831182151516156108e8576108e7610814565b5b828202905092915050565b7f4e487b7100000000000000000000000000000000000000000000000000000000600052602260045260246000fd5b6000600282049050600182168061093a57607f821691505b6020821081141561094e5761094d6108f3565b5b50919050565b600081905092915050565b600061096a82610700565b6109748185610954565b935061098481856020860161071c565b80840191505092915050565b600061099c828461095f565b91508190509291505056fea264697066735822122040b0ddebb7c387b7ecf99eb9462dbec9172edfaf623f28a32b141df3f73d436f64736f6c63430008080033",
					"opcodes": "PUSH1 0x80 PUSH1 0x40 MSTORE PUSH1 0x40 MLOAD DUP1 PUSH1 0x40 ADD PUSH1 0x40 MSTORE DUP1 PUSH1 0x2 DUP2 MSTORE PUSH1 0x20 ADD PUSH1 0x40 MLOAD DUP1 PUSH1 0x40 ADD PUSH1 0x40 MSTORE DUP1 PUSH1 0x5 DUP2 MSTORE PUSH1 0x20 ADD PUSH32 0x7261646861000000000000000000000000000000000000000000000000000000 DUP2 MSTORE POP DUP2 MSTORE POP PUSH1 0x2 PUSH1 0x0 DUP3 ADD MLOAD DUP2 PUSH1 0x0 ADD SSTORE PUSH1 0x20 DUP3 ADD MLOAD DUP2 PUSH1 0x1 ADD SWAP1 DUP1 MLOAD SWAP1 PUSH1 0x20 ADD SWAP1 PUSH2 0x77 SWAP3 SWAP2 SWAP1 PUSH2 0x8C JUMP JUMPDEST POP POP POP CALLVALUE DUP1 ISZERO PUSH2 0x86 JUMPI PUSH1 0x0 DUP1 REVERT JUMPDEST POP PUSH2 0x190 JUMP JUMPDEST DUP3 DUP1 SLOAD PUSH2 0x98 SWAP1 PUSH2 0x15E JUMP JUMPDEST SWAP1 PUSH1 0x0 MSTORE PUSH1 0x20 PUSH1 0x0 KECCAK256 SWAP1 PUSH1 0x1F ADD PUSH1 0x20 SWAP1 DIV DUP2 ADD SWAP3 DUP3 PUSH2 0xBA JUMPI PUSH1 0x0 DUP6 SSTORE PUSH2 0x101 JUMP JUMPDEST DUP3 PUSH1 0x1F LT PUSH2 0xD3 JUMPI DUP1 MLOAD PUSH1 0xFF NOT AND DUP4 DUP1 ADD OR DUP6 SSTORE PUSH2 0x101 JUMP JUMPDEST DUP3 DUP1 ADD PUSH1 0x1 ADD DUP6 SSTORE DUP3 ISZERO PUSH2 0x101 JUMPI SWAP2 DUP3 ADD JUMPDEST DUP3 DUP2 GT ISZERO PUSH2 0x100 JUMPI DUP3 MLOAD DUP3 SSTORE SWAP2 PUSH1 0x20 ADD SWAP2 SWAP1 PUSH1 0x1 ADD SWAP1 PUSH2 0xE5 JUMP JUMPDEST JUMPDEST POP SWAP1 POP PUSH2 0x10E SWAP2 SWAP1 PUSH2 0x112 JUMP JUMPDEST POP SWAP1 JUMP JUMPDEST JUMPDEST DUP1 DUP3 GT ISZERO PUSH2 0x12B JUMPI PUSH1 0x0 DUP2 PUSH1 0x0 SWAP1 SSTORE POP PUSH1 0x1 ADD PUSH2 0x113 JUMP JUMPDEST POP SWAP1 JUMP JUMPDEST PUSH32 0x4E487B7100000000000000000000000000000000000000000000000000000000 PUSH1 0x0 MSTORE PUSH1 0x22 PUSH1 0x4 MSTORE PUSH1 0x24 PUSH1 0x0 REVERT JUMPDEST PUSH1 0x0 PUSH1 0x2 DUP3 DIV SWAP1 POP PUSH1 0x1 DUP3 AND DUP1 PUSH2 0x176 JUMPI PUSH1 0x7F DUP3 AND SWAP2 POP JUMPDEST PUSH1 0x20 DUP3 LT DUP2 EQ ISZERO PUSH2 0x18A JUMPI PUSH2 0x189 PUSH2 0x12F JUMP JUMPDEST JUMPDEST POP SWAP2 SWAP1 POP JUMP JUMPDEST PUSH2 0x9DD DUP1 PUSH2 0x19F PUSH1 0x0 CODECOPY PUSH1 0x0 RETURN INVALID PUSH1 0x80 PUSH1 0x40 MSTORE CALLVALUE DUP1 ISZERO PUSH2 0x10 JUMPI PUSH1 0x0 DUP1 REVERT JUMPDEST POP PUSH1 0x4 CALLDATASIZE LT PUSH2 0x88 JUMPI PUSH1 0x0 CALLDATALOAD PUSH1 0xE0 SHR DUP1 PUSH4 0x77EC2B55 GT PUSH2 0x5B JUMPI DUP1 PUSH4 0x77EC2B55 EQ PUSH2 0x116 JUMPI DUP1 PUSH4 0x9E7A13AD EQ PUSH2 0x135 JUMPI DUP1 PUSH4 0xA7279116 EQ PUSH2 0x166 JUMPI DUP1 PUSH4 0xC7A0D9F6 EQ PUSH2 0x182 JUMPI PUSH2 0x88 JUMP JUMPDEST DUP1 PUSH4 0x2E64CEC1 EQ PUSH2 0x8D JUMPI DUP1 PUSH4 0x43EC8F47 EQ PUSH2 0xAB JUMPI DUP1 PUSH4 0x4F2BE91F EQ PUSH2 0xDB JUMPI DUP1 PUSH4 0x6057361D EQ PUSH2 0xFA JUMPI JUMPDEST PUSH1 0x0 DUP1 REVERT JUMPDEST PUSH2 0x95 PUSH2 0x1A0 JUMP JUMPDEST PUSH1 0x40 MLOAD PUSH2 0xA2 SWAP2 SWAP1 PUSH2 0x4C0 JUMP JUMPDEST PUSH1 0x40 MLOAD DUP1 SWAP2 SUB SWAP1 RETURN JUMPDEST PUSH2 0xC5 PUSH1 0x4 DUP1 CALLDATASIZE SUB DUP2 ADD SWAP1 PUSH2 0xC0 SWAP2 SWAP1 PUSH2 0x635 JUMP JUMPDEST PUSH2 0x1A9 JUMP JUMPDEST PUSH1 0x40 MLOAD PUSH2 0xD2 SWAP2 SWAP1 PUSH2 0x4C0 JUMP JUMPDEST PUSH1 0x40 MLOAD DUP1 SWAP2 SUB SWAP1 RETURN JUMPDEST PUSH2 0xE3 PUSH2 0x1D7 JUMP JUMPDEST PUSH1 0x40 MLOAD PUSH2 0xF1 SWAP3 SWAP2 SWAP1 PUSH2 0x67E JUMP JUMPDEST PUSH1 0x40 MLOAD DUP1 SWAP2 SUB SWAP1 RETURN JUMPDEST PUSH2 0x114 PUSH1 0x4 DUP1 CALLDATASIZE SUB DUP2 ADD SWAP1 PUSH2 0x10F SWAP2 SWAP1 PUSH2 0x6D3 JUMP JUMPDEST PUSH2 0x208 JUMP JUMPDEST STOP JUMPDEST PUSH2 0x11E PUSH2 0x212 JUMP JUMPDEST PUSH1 0x40 MLOAD PUSH2 0x12C SWAP3 SWAP2 SWAP1 PUSH2 0x788 JUMP JUMPDEST PUSH1 0x40 MLOAD DUP1 SWAP2 SUB SWAP1 RETURN JUMPDEST PUSH2 0x14F PUSH1 0x4 DUP1 CALLDATASIZE SUB DUP2 ADD SWAP1 PUSH2 0x14A SWAP2 SWAP1 PUSH2 0x6D3 JUMP JUMPDEST PUSH2 0x2AC JUMP JUMPDEST PUSH1 0x40 MLOAD PUSH2 0x15D SWAP3 SWAP2 SWAP1 PUSH2 0x788 JUMP JUMPDEST PUSH1 0x40 MLOAD DUP1 SWAP2 SUB SWAP1 RETURN JUMPDEST PUSH2 0x180 PUSH1 0x4 DUP1 CALLDATASIZE SUB DUP2 ADD SWAP1 PUSH2 0x17B SWAP2 SWAP1 PUSH2 0x7B8 JUMP JUMPDEST PUSH2 0x368 JUMP JUMPDEST STOP JUMPDEST PUSH2 0x18A PUSH2 0x3FE JUMP JUMPDEST PUSH1 0x40 MLOAD PUSH2 0x197 SWAP2 SWAP1 PUSH2 0x4C0 JUMP JUMPDEST PUSH1 0x40 MLOAD DUP1 SWAP2 SUB SWAP1 RETURN JUMPDEST PUSH1 0x0 DUP1 SLOAD SWAP1 POP SWAP1 JUMP JUMPDEST PUSH1 0x1 DUP2 DUP1 MLOAD PUSH1 0x20 DUP2 ADD DUP3 ADD DUP1 MLOAD DUP5 DUP3 MSTORE PUSH1 0x20 DUP4 ADD PUSH1 0x20 DUP6 ADD KECCAK256 DUP2 DUP4 MSTORE DUP1 SWAP6 POP POP POP POP POP POP PUSH1 0x0 SWAP2 POP SWAP1 POP SLOAD DUP2 JUMP JUMPDEST PUSH1 0x0 DUP1 PUSH1 0x0 PUSH1 0x2 SWAP1 POP PUSH1 0x0 PUSH1 0x5 SWAP1 POP DUP1 DUP3 PUSH2 0x1F2 SWAP2 SWAP1 PUSH2 0x843 JUMP JUMPDEST SWAP4 POP DUP1 DUP3 PUSH2 0x200 SWAP2 SWAP1 PUSH2 0x899 JUMP JUMPDEST SWAP3 POP POP POP SWAP1 SWAP2 JUMP JUMPDEST DUP1 PUSH1 0x0 DUP2 SWAP1 SSTORE POP POP JUMP JUMPDEST PUSH1 0x2 DUP1 PUSH1 0x0 ADD SLOAD SWAP1 DUP1 PUSH1 0x1 ADD DUP1 SLOAD PUSH2 0x229 SWAP1 PUSH2 0x922 JUMP JUMPDEST DUP1 PUSH1 0x1F ADD PUSH1 0x20 DUP1 SWAP2 DIV MUL PUSH1 0x20 ADD PUSH1 0x40 MLOAD SWAP1 DUP2 ADD PUSH1 0x40 MSTORE DUP1 SWAP3 SWAP2 SWAP1 DUP2 DUP2 MSTORE PUSH1 0x20 ADD DUP3 DUP1 SLOAD PUSH2 0x255 SWAP1 PUSH2 0x922 JUMP JUMPDEST DUP1 ISZERO PUSH2 0x2A2 JUMPI DUP1 PUSH1 0x1F LT PUSH2 0x277 JUMPI PUSH2 0x100 DUP1 DUP4 SLOAD DIV MUL DUP4 MSTORE SWAP2 PUSH1 0x20 ADD SWAP2 PUSH2 0x2A2 JUMP JUMPDEST DUP3 ADD SWAP2 SWAP1 PUSH1 0x0 MSTORE PUSH1 0x20 PUSH1 0x0 KECCAK256 SWAP1 JUMPDEST DUP2 SLOAD DUP2 MSTORE SWAP1 PUSH1 0x1 ADD SWAP1 PUSH1 0x20 ADD DUP1 DUP4 GT PUSH2 0x285 JUMPI DUP3 SWAP1 SUB PUSH1 0x1F AND DUP3 ADD SWAP2 JUMPDEST POP POP POP POP POP SWAP1 POP DUP3 JUMP JUMPDEST PUSH1 0x4 DUP2 DUP2 SLOAD DUP2 LT PUSH2 0x2BC JUMPI PUSH1 0x0 DUP1 REVERT JUMPDEST SWAP1 PUSH1 0x0 MSTORE PUSH1 0x20 PUSH1 0x0 KECCAK256 SWAP1 PUSH1 0x2 MUL ADD PUSH1 0x0 SWAP2 POP SWAP1 POP DUP1 PUSH1 0x0 ADD SLOAD SWAP1 DUP1 PUSH1 0x1 ADD DUP1 SLOAD PUSH2 0x2E5 SWAP1 PUSH2 0x922 JUMP JUMPDEST DUP1 PUSH1 0x1F ADD PUSH1 0x20 DUP1 SWAP2 DIV MUL PUSH1 0x20 ADD PUSH1 0x40 MLOAD SWAP1 DUP2 ADD PUSH1 0x40 MSTORE DUP1 SWAP3 SWAP2 SWAP1 DUP2 DUP2 MSTORE PUSH1 0x20 ADD DUP3 DUP1 SLOAD PUSH2 0x311 SWAP1 PUSH2 0x922 JUMP JUMPDEST DUP1 ISZERO PUSH2 0x35E JUMPI DUP1 PUSH1 0x1F LT PUSH2 0x333 JUMPI PUSH2 0x100 DUP1 DUP4 SLOAD DIV MUL DUP4 MSTORE SWAP2 PUSH1 0x20 ADD SWAP2 PUSH2 0x35E JUMP JUMPDEST DUP3 ADD SWAP2 SWAP1 PUSH1 0x0 MSTORE PUSH1 0x20 PUSH1 0x0 KECCAK256 SWAP1 JUMPDEST DUP2 SLOAD DUP2 MSTORE SWAP1 PUSH1 0x1 ADD SWAP1 PUSH1 0x20 ADD DUP1 DUP4 GT PUSH2 0x341 JUMPI DUP3 SWAP1 SUB PUSH1 0x1F AND DUP3 ADD SWAP2 JUMPDEST POP POP POP POP POP SWAP1 POP DUP3 JUMP JUMPDEST PUSH1 0x0 PUSH1 0x40 MLOAD DUP1 PUSH1 0x40 ADD PUSH1 0x40 MSTORE DUP1 DUP5 DUP2 MSTORE PUSH1 0x20 ADD DUP4 DUP2 MSTORE POP SWAP1 POP PUSH1 0x4 DUP2 SWAP1 DUP1 PUSH1 0x1 DUP2 SLOAD ADD DUP1 DUP3 SSTORE DUP1 SWAP2 POP POP PUSH1 0x1 SWAP1 SUB SWAP1 PUSH1 0x0 MSTORE PUSH1 0x20 PUSH1 0x0 KECCAK256 SWAP1 PUSH1 0x2 MUL ADD PUSH1 0x0 SWAP1 SWAP2 SWAP1 SWAP2 SWAP1 SWAP2 POP PUSH1 0x0 DUP3 ADD MLOAD DUP2 PUSH1 0x0 ADD SSTORE PUSH1 0x20 DUP3 ADD MLOAD DUP2 PUSH1 0x1 ADD SWAP1 DUP1 MLOAD SWAP1 PUSH1 0x20 ADD SWAP1 PUSH2 0x3D3 SWAP3 SWAP2 SWAP1 PUSH2 0x404 JUMP JUMPDEST POP POP POP DUP3 PUSH1 0x1 DUP4 PUSH1 0x40 MLOAD PUSH2 0x3E7 SWAP2 SWAP1 PUSH2 0x990 JUMP JUMPDEST SWAP1 DUP2 MSTORE PUSH1 0x20 ADD PUSH1 0x40 MLOAD DUP1 SWAP2 SUB SWAP1 KECCAK256 DUP2 SWAP1 SSTORE POP POP POP POP JUMP JUMPDEST PUSH1 0x0 SLOAD DUP2 JUMP JUMPDEST DUP3 DUP1 SLOAD PUSH2 0x410 SWAP1 PUSH2 0x922 JUMP JUMPDEST SWAP1 PUSH1 0x0 MSTORE PUSH1 0x20 PUSH1 0x0 KECCAK256 SWAP1 PUSH1 0x1F ADD PUSH1 0x20 SWAP1 DIV DUP2 ADD SWAP3 DUP3 PUSH2 0x432 JUMPI PUSH1 0x0 DUP6 SSTORE PUSH2 0x479 JUMP JUMPDEST DUP3 PUSH1 0x1F LT PUSH2 0x44B JUMPI DUP1 MLOAD PUSH1 0xFF NOT AND DUP4 DUP1 ADD OR DUP6 SSTORE PUSH2 0x479 JUMP JUMPDEST DUP3 DUP1 ADD PUSH1 0x1 ADD DUP6 SSTORE DUP3 ISZERO PUSH2 0x479 JUMPI SWAP2 DUP3 ADD JUMPDEST DUP3 DUP2 GT ISZERO PUSH2 0x478 JUMPI DUP3 MLOAD DUP3 SSTORE SWAP2 PUSH1 0x20 ADD SWAP2 SWAP1 PUSH1 0x1 ADD SWAP1 PUSH2 0x45D JUMP JUMPDEST JUMPDEST POP SWAP1 POP PUSH2 0x486 SWAP2 SWAP1 PUSH2 0x48A JUMP JUMPDEST POP SWAP1 JUMP JUMPDEST JUMPDEST DUP1 DUP3 GT ISZERO PUSH2 0x4A3 JUMPI PUSH1 0x0 DUP2 PUSH1 0x0 SWAP1 SSTORE POP PUSH1 0x1 ADD PUSH2 0x48B JUMP JUMPDEST POP SWAP1 JUMP JUMPDEST PUSH1 0x0 DUP2 SWAP1 POP SWAP2 SWAP1 POP JUMP JUMPDEST PUSH2 0x4BA DUP2 PUSH2 0x4A7 JUMP JUMPDEST DUP3 MSTORE POP POP JUMP JUMPDEST PUSH1 0x0 PUSH1 0x20 DUP3 ADD SWAP1 POP PUSH2 0x4D5 PUSH1 0x0 DUP4 ADD DUP5 PUSH2 0x4B1 JUMP JUMPDEST SWAP3 SWAP2 POP POP JUMP JUMPDEST PUSH1 0x0 PUSH1 0x40 MLOAD SWAP1 POP SWAP1 JUMP JUMPDEST PUSH1 0x0 DUP1 REVERT JUMPDEST PUSH1 0x0 DUP1 REVERT JUMPDEST PUSH1 0x0 DUP1 REVERT JUMPDEST PUSH1 0x0 DUP1 REVERT JUMPDEST PUSH1 0x0 PUSH1 0x1F NOT PUSH1 0x1F DUP4 ADD AND SWAP1 POP SWAP2 SWAP1 POP JUMP JUMPDEST PUSH32 0x4E487B7100000000000000000000000000000000000000000000000000000000 PUSH1 0x0 MSTORE PUSH1 0x41 PUSH1 0x4 MSTORE PUSH1 0x24 PUSH1 0x0 REVERT JUMPDEST PUSH2 0x542 DUP3 PUSH2 0x4F9 JUMP JUMPDEST DUP2 ADD DUP2 DUP2 LT PUSH8 0xFFFFFFFFFFFFFFFF DUP3 GT OR ISZERO PUSH2 0x561 JUMPI PUSH2 0x560 PUSH2 0x50A JUMP JUMPDEST JUMPDEST DUP1 PUSH1 0x40 MSTORE POP POP POP JUMP JUMPDEST PUSH1 0x0 PUSH2 0x574 PUSH2 0x4DB JUMP JUMPDEST SWAP1 POP PUSH2 0x580 DUP3 DUP3 PUSH2 0x539 JUMP JUMPDEST SWAP2 SWAP1 POP JUMP JUMPDEST PUSH1 0x0 PUSH8 0xFFFFFFFFFFFFFFFF DUP3 GT ISZERO PUSH2 0x5A0 JUMPI PUSH2 0x59F PUSH2 0x50A JUMP JUMPDEST JUMPDEST PUSH2 0x5A9 DUP3 PUSH2 0x4F9 JUMP JUMPDEST SWAP1 POP PUSH1 0x20 DUP2 ADD SWAP1 POP SWAP2 SWAP1 POP JUMP JUMPDEST DUP3 DUP2 DUP4 CALLDATACOPY PUSH1 0x0 DUP4 DUP4 ADD MSTORE POP POP POP JUMP JUMPDEST PUSH1 0x0 PUSH2 0x5D8 PUSH2 0x5D3 DUP5 PUSH2 0x585 JUMP JUMPDEST PUSH2 0x56A JUMP JUMPDEST SWAP1 POP DUP3 DUP2 MSTORE PUSH1 0x20 DUP2 ADD DUP5 DUP5 DUP5 ADD GT ISZERO PUSH2 0x5F4 JUMPI PUSH2 0x5F3 PUSH2 0x4F4 JUMP JUMPDEST JUMPDEST PUSH2 0x5FF DUP5 DUP3 DUP6 PUSH2 0x5B6 JUMP JUMPDEST POP SWAP4 SWAP3 POP POP POP JUMP JUMPDEST PUSH1 0x0 DUP3 PUSH1 0x1F DUP4 ADD SLT PUSH2 0x61C JUMPI PUSH2 0x61B PUSH2 0x4EF JUMP JUMPDEST JUMPDEST DUP2 CALLDATALOAD PUSH2 0x62C DUP5 DUP3 PUSH1 0x20 DUP7 ADD PUSH2 0x5C5 JUMP JUMPDEST SWAP2 POP POP SWAP3 SWAP2 POP POP JUMP JUMPDEST PUSH1 0x0 PUSH1 0x20 DUP3 DUP5 SUB SLT ISZERO PUSH2 0x64B JUMPI PUSH2 0x64A PUSH2 0x4E5 JUMP JUMPDEST JUMPDEST PUSH1 0x0 DUP3 ADD CALLDATALOAD PUSH8 0xFFFFFFFFFFFFFFFF DUP2 GT ISZERO PUSH2 0x669 JUMPI PUSH2 0x668 PUSH2 0x4EA JUMP JUMPDEST JUMPDEST PUSH2 0x675 DUP5 DUP3 DUP6 ADD PUSH2 0x607 JUMP JUMPDEST SWAP2 POP POP SWAP3 SWAP2 POP POP JUMP JUMPDEST PUSH1 0x0 PUSH1 0x40 DUP3 ADD SWAP1 POP PUSH2 0x693 PUSH1 0x0 DUP4 ADD DUP6 PUSH2 0x4B1 JUMP JUMPDEST PUSH2 0x6A0 PUSH1 0x20 DUP4 ADD DUP5 PUSH2 0x4B1 JUMP JUMPDEST SWAP4 SWAP3 POP POP POP JUMP JUMPDEST PUSH2 0x6B0 DUP2 PUSH2 0x4A7 JUMP JUMPDEST DUP2 EQ PUSH2 0x6BB JUMPI PUSH1 0x0 DUP1 REVERT JUMPDEST POP JUMP JUMPDEST PUSH1 0x0 DUP2 CALLDATALOAD SWAP1 POP PUSH2 0x6CD DUP2 PUSH2 0x6A7 JUMP JUMPDEST SWAP3 SWAP2 POP POP JUMP JUMPDEST PUSH1 0x0 PUSH1 0x20 DUP3 DUP5 SUB SLT ISZERO PUSH2 0x6E9 JUMPI PUSH2 0x6E8 PUSH2 0x4E5 JUMP JUMPDEST JUMPDEST PUSH1 0x0 PUSH2 0x6F7 DUP5 DUP3 DUP6 ADD PUSH2 0x6BE JUMP JUMPDEST SWAP2 POP POP SWAP3 SWAP2 POP POP JUMP JUMPDEST PUSH1 0x0 DUP2 MLOAD SWAP1 POP SWAP2 SWAP1 POP JUMP JUMPDEST PUSH1 0x0 DUP3 DUP3 MSTORE PUSH1 0x20 DUP3 ADD SWAP1 POP SWAP3 SWAP2 POP POP JUMP JUMPDEST PUSH1 0x0 JUMPDEST DUP4 DUP2 LT ISZERO PUSH2 0x73A JUMPI DUP1 DUP3 ADD MLOAD DUP2 DUP5 ADD MSTORE PUSH1 0x20 DUP2 ADD SWAP1 POP PUSH2 0x71F JUMP JUMPDEST DUP4 DUP2 GT ISZERO PUSH2 0x749 JUMPI PUSH1 0x0 DUP5 DUP5 ADD MSTORE JUMPDEST POP POP POP POP JUMP JUMPDEST PUSH1 0x0 PUSH2 0x75A DUP3 PUSH2 0x700 JUMP JUMPDEST PUSH2 0x764 DUP2 DUP6 PUSH2 0x70B JUMP JUMPDEST SWAP4 POP PUSH2 0x774 DUP2 DUP6 PUSH1 0x20 DUP7 ADD PUSH2 0x71C JUMP JUMPDEST PUSH2 0x77D DUP2 PUSH2 0x4F9 JUMP JUMPDEST DUP5 ADD SWAP2 POP POP SWAP3 SWAP2 POP POP JUMP JUMPDEST PUSH1 0x0 PUSH1 0x40 DUP3 ADD SWAP1 POP PUSH2 0x79D PUSH1 0x0 DUP4 ADD DUP6 PUSH2 0x4B1 JUMP JUMPDEST DUP2 DUP2 SUB PUSH1 0x20 DUP4 ADD MSTORE PUSH2 0x7AF DUP2 DUP5 PUSH2 0x74F JUMP JUMPDEST SWAP1 POP SWAP4 SWAP3 POP POP POP JUMP JUMPDEST PUSH1 0x0 DUP1 PUSH1 0x40 DUP4 DUP6 SUB SLT ISZERO PUSH2 0x7CF JUMPI PUSH2 0x7CE PUSH2 0x4E5 JUMP JUMPDEST JUMPDEST PUSH1 0x0 PUSH2 0x7DD DUP6 DUP3 DUP7 ADD PUSH2 0x6BE JUMP JUMPDEST SWAP3 POP POP PUSH1 0x20 DUP4 ADD CALLDATALOAD PUSH8 0xFFFFFFFFFFFFFFFF DUP2 GT ISZERO PUSH2 0x7FE JUMPI PUSH2 0x7FD PUSH2 0x4EA JUMP JUMPDEST JUMPDEST PUSH2 0x80A DUP6 DUP3 DUP7 ADD PUSH2 0x607 JUMP JUMPDEST SWAP2 POP POP SWAP3 POP SWAP3 SWAP1 POP JUMP JUMPDEST PUSH32 0x4E487B7100000000000000000000000000000000000000000000000000000000 PUSH1 0x0 MSTORE PUSH1 0x11 PUSH1 0x4 MSTORE PUSH1 0x24 PUSH1 0x0 REVERT JUMPDEST PUSH1 0x0 PUSH2 0x84E DUP3 PUSH2 0x4A7 JUMP JUMPDEST SWAP2 POP PUSH2 0x859 DUP4 PUSH2 0x4A7 JUMP JUMPDEST SWAP3 POP DUP3 PUSH32 0xFFFFFFFFFFFFFFFFFFFFFFFFFFFFFFFFFFFFFFFFFFFFFFFFFFFFFFFFFFFFFFFF SUB DUP3 GT ISZERO PUSH2 0x88E JUMPI PUSH2 0x88D PUSH2 0x814 JUMP JUMPDEST JUMPDEST DUP3 DUP3 ADD SWAP1 POP SWAP3 SWAP2 POP POP JUMP JUMPDEST PUSH1 0x0 PUSH2 0x8A4 DUP3 PUSH2 0x4A7 JUMP JUMPDEST SWAP2 POP PUSH2 0x8AF DUP4 PUSH2 0x4A7 JUMP JUMPDEST SWAP3 POP DUP2 PUSH32 0xFFFFFFFFFFFFFFFFFFFFFFFFFFFFFFFFFFFFFFFFFFFFFFFFFFFFFFFFFFFFFFFF DIV DUP4 GT DUP3 ISZERO ISZERO AND ISZERO PUSH2 0x8E8 JUMPI PUSH2 0x8E7 PUSH2 0x814 JUMP JUMPDEST JUMPDEST DUP3 DUP3 MUL SWAP1 POP SWAP3 SWAP2 POP POP JUMP JUMPDEST PUSH32 0x4E487B7100000000000000000000000000000000000000000000000000000000 PUSH1 0x0 MSTORE PUSH1 0x22 PUSH1 0x4 MSTORE PUSH1 0x24 PUSH1 0x0 REVERT JUMPDEST PUSH1 0x0 PUSH1 0x2 DUP3 DIV SWAP1 POP PUSH1 0x1 DUP3 AND DUP1 PUSH2 0x93A JUMPI PUSH1 0x7F DUP3 AND SWAP2 POP JUMPDEST PUSH1 0x20 DUP3 LT DUP2 EQ ISZERO PUSH2 0x94E JUMPI PUSH2 0x94D PUSH2 0x8F3 JUMP JUMPDEST JUMPDEST POP SWAP2 SWAP1 POP JUMP JUMPDEST PUSH1 0x0 DUP2 SWAP1 POP SWAP3 SWAP2 POP POP JUMP JUMPDEST PUSH1 0x0 PUSH2 0x96A DUP3 PUSH2 0x700 JUMP JUMPDEST PUSH2 0x974 DUP2 DUP6 PUSH2 0x954 JUMP JUMPDEST SWAP4 POP PUSH2 0x984 DUP2 DUP6 PUSH1 0x20 DUP7 ADD PUSH2 0x71C JUMP JUMPDEST DUP1 DUP5 ADD SWAP2 POP POP SWAP3 SWAP2 POP POP JUMP JUMPDEST PUSH1 0x0 PUSH2 0x99C DUP3 DUP5 PUSH2 0x95F JUMP JUMPDEST SWAP2 POP DUP2 SWAP1 POP SWAP3 SWAP2 POP POP JUMP INVALID LOG2 PUSH5 0x6970667358 0x22 SLT KECCAK256 BLOCKHASH 0xB0 0xDD 0xEB 0xB7 0xC3 DUP8 0xB7 0xEC 0xF9 SWAP15 0xB9 CHAINID 0x2D 0xBE 0xC9 OR 0x2E 0xDF 0xAF PUSH3 0x3F28A3 0x2B EQ SAR RETURN 0xF7 RETURNDATASIZE NUMBER PUSH16 0x64736F6C634300080800330000000000 "
				},
				"gasEstimates": {
					"creation": {
						"codeDepositCost": "505000",
						"executionCost": "infinite",
						"totalCost": "infinite"
					},
					"external": {
						"add()": "infinite",
						"addperson(uint256,string)": "infinite",
						"favNumber()": "2495",
						"nameToFavNumber(string)": "infinite",
						"people(uint256)": "infinite",
						"person()": "infinite",
						"retrieve()": "2438",
						"store(uint256)": "22587"
					}
				},
				"methodIdentifiers": {
					"add()": "4f2be91f",
					"addperson(uint256,string)": "a7279116",
					"favNumber()": "c7a0d9f6",
					"nameToFavNumber(string)": "43ec8f47",
					"people(uint256)": "9e7a13ad",
					"person()": "77ec2b55",
					"retrieve()": "2e64cec1",
					"store(uint256)": "6057361d"
				}
			},
			"storageLayout": {
				"storage": [
					{
						"astId": 22,
						"contract": "contracts/SimpleStorage.sol:SimpleStorage",
						"label": "favNumber",
						"offset": 0,
						"slot": "0",
						"type": "t_uint256"
					},
					{
						"astId": 26,
						"contract": "contracts/SimpleStorage.sol:SimpleStorage",
						"label": "nameToFavNumber",
						"offset": 0,
						"slot": "1",
						"type": "t_mapping(t_string_memory_ptr,t_uint256)"
					},
					{
						"astId": 33,
						"contract": "contracts/SimpleStorage.sol:SimpleStorage",
						"label": "person",
						"offset": 0,
						"slot": "2",
						"type": "t_struct(People)42_storage"
					},
					{
						"astId": 37,
						"contract": "contracts/SimpleStorage.sol:SimpleStorage",
						"label": "people",
						"offset": 0,
						"slot": "4",
						"type": "t_array(t_struct(People)42_storage)dyn_storage"
					}
				],
				"types": {
					"t_array(t_struct(People)42_storage)dyn_storage": {
						"base": "t_struct(People)42_storage",
						"encoding": "dynamic_array",
						"label": "struct SimpleStorage.People[]",
						"numberOfBytes": "32"
					},
					"t_mapping(t_string_memory_ptr,t_uint256)": {
						"encoding": "mapping",
						"key": "t_string_memory_ptr",
						"label": "mapping(string => uint256)",
						"numberOfBytes": "32",
						"value": "t_uint256"
					},
					"t_string_memory_ptr": {
						"encoding": "bytes",
						"label": "string",
						"numberOfBytes": "32"
					},
					"t_string_storage": {
						"encoding": "bytes",
						"label": "string",
						"numberOfBytes": "32"
					},
					"t_struct(People)42_storage": {
						"encoding": "inplace",
						"label": "struct SimpleStorage.People",
						"members": [
							{
								"astId": 39,
								"contract": "contracts/SimpleStorage.sol:SimpleStorage",
								"label": "favNumber",
								"offset": 0,
								"slot": "0",
								"type": "t_uint256"
							},
							{
								"astId": 41,
								"contract": "contracts/SimpleStorage.sol:SimpleStorage",
								"label": "name",
								"offset": 0,
								"slot": "1",
								"type": "t_string_storage"
							}
						],
						"numberOfBytes": "64"
					},
					"t_uint256": {
						"encoding": "inplace",
						"label": "uint256",
						"numberOfBytes": "32"
					}
				}
			},
			"userdoc": {
				"kind": "user",
				"methods": {},
				"version": 1
			}
		}
	}
}